:020000040800F2
:1000000000200020354A0008854A0008854A00087B
:1000100000000000000000000000000000000000E0
:10002000000000000000000000000000854A0008F9
:100030000000000000000000854A0008333F00086F
:10004000854A000800000000854A0008854A00082B
:10005000854A00088948000899480008A94800080E
:1000600000000000854A0008854A0008854A00080B
:10007000854A0008F9240008112500080000000046
:100080001925000831250008000000004925000856
:10009000612500087925000891250008854A000897
:1000A000854A0008854A0008854A0008BD470008BF
:1000B000D54700080000000000000000000000001C
:1000C00002780B78002A03D0013001319A42F7D030
:1000D000D01A70470023C25C0133002AFBD1581E9E
:1000E0007047000002B4714649084900095C4900A4
:1000F0008E4402BC7047C046002243088B4274D332
:1001000003098B425FD3030A8B4244D3030B8B4218
:1001100028D3030C8B420DD3FF22090212BA030C21
:100120008B4202D31212090265D0030B8B4219D302
:1001300000E0090AC30B8B4201D3CB03C01A524122
:10014000830B8B4201D38B03C01A5241430B8B426A
:1001500001D34B03C01A5241030B8B4201D30B0353
:10016000C01A5241C30A8B4201D3CB02C01A52417A
:10017000830A8B4201D38B02C01A5241430A8B423D
:1001800001D34B02C01A5241030A8B4201D30B0226
:10019000C01A5241CDD2C3098B4201D3CB01C01A40
:1001A000524183098B4201D38B01C01A524143094A
:1001B0008B4201D34B01C01A524103098B4201D338
:1001C0000B01C01A5241C3088B4201D3CB00C01AA5
:1001D000524183088B4201D38B00C01A524143081D
:1001E0008B4201D34B00C01A5241411A00D2014642
:1001F000524110467047FFE701B5002000F006F8B5
:1002000002BDC0460029F7D076E770477047C04668
:10021000D0400B00D1409C46203AD3401843524274
:10022000634693401843704710B5064C2378002B63
:1002300007D1054B002B02D0044800E000BF01238A
:10024000237010BDA000002000000000245F000803
:10025000044B10B5002B03D00349044800E000BF55
:1002600010BDC04600000000A4000020245F00086C
:100270000300F0B5083387B0164904001800019355
:1002800005F042F904F0D4FC002702000023124ECE
:10029000B6185F41206803681B699847051E05D1A1
:1002A00004F0C6FCBD42F5D1B042F3D92068036822
:1002B0001B69984700280AD0216803A805F06AF84E
:1002C000019803A905F018F903A805F077F807B01D
:1002D000F0BDC046916200088813000070B50C00A4
:1002E00086B01E490600206804F0AAFF2000FFF730
:1002F000BFFF08341A4903A805F029F9200003A913
:1003000005F016FA050003A805F058F8013506D1E6
:100310003000144905F099F8300006B070BD684609
:10032000114905F014F96946200005F001FA0F495A
:10033000050003A805F00BF903A9200005F025FA34
:1003400021000300AA1C300005F026FA03A805F0DE
:1003500035F8684605F032F8DEE7C046585F000819
:10036000C0600008625F0008AC5F0008AD5F000875
:100370001FB504000C49006804F062FF2000FFF77D
:1003800077FF0A4901A805F0E2F8200001A908302A
:1003900005F0CEF904000134631E9C4101A805F06C
:1003A0000DF8E0B204B010BD705F0008405F0008B7
:1003B00010B504000121406904F066FB0121606969
:1003C00004F0BEFB237F002B03D00121A06904F0C1
:1003D0005BFB2000FF21083005F00FF82000FFF73D
:1003E000C7FF10BD0300F0B5083389B003910400C6
:1003F00017491800029305F087F804F019FC00274C
:100400000600206803681B699847051E0CD104F09C
:100410000FFC039B01950093009A019B92197B416D
:100420009D42EED19042ECD9206803681B69984741
:1004300000280AD0216805A804F0ACFF029805A99D
:1004400005F05AF805A804F0B9FF09B0F0BDC046A0
:100450009162000870B50C0011000500206804F0DE
:10046000FAFE0749206804F0F6FE20000549FFF770
:10047000B9FF21002800083105F034F8280070BDCC
:10048000B05F00081027000070B504008AB01F4953
:10049000006804F0D5FE20001D49FFF7A3FF0834D3
:1004A0001C4907A805F053F807A9200005F040F9FA
:1004B000060007A804F082FF6325013623D0164901
:1004C00001A805F044F801A9200005F031F913490D
:1004D000050004A805F03BF804A9200005F028F960
:1004E000AA1D0300210007A805F056F907A805F08A
:1004F000A0F9050007A804F061FF04A804F05EFF5E
:1005000001A804F05BFF28000AB070BD765F000808
:10051000881300007E5F0008845F0008C060000848
:1005200010B504008B6805F037F9200010BD0000FD
:100530007FB504000D0001A81E49160004F085FFD8
:100540001D49206804F07CFE29002500206804F085
:1005500082FE1A49206804F073FE08352000FFF778
:1005600087FE290001A805F014F83100206804F086
:1005700072FE1349206804F06EFE2000FFF778FE3B
:10058000290001A805F005F81A21206804F067FE8B
:100590002000FFF76DFE290001A804F0FAFF019B7F
:1005A00001245A42534101A85C4004F007FF200097
:1005B00004B070BD91620008B25F0008AF5F000830
:1005C000B05F0008F0B50C0017009FB0CB490500E4
:1005D00020681E0004F03FFE0A223900206804F063
:1005E0009AFEC749206804F036FEC649002E00D1A5
:1005F000C549206804F02FFEC449206804F02BFE92
:100600002000C349FFF7EEFEC249280004F01DFF99
:100610000834C1491BA804F018FF20001BA905F0ED
:1006200087F806001BA804F0C9FE013600D150E18E
:10063000BA4E6846310004F008FF310003A804F008
:1006400004FF310006A804F000FF310009A804F0FF
:10065000FCFE31000CA804F0F8FEB14E68463100F3
:1006600004F052FF310003A804F04EFFAD491BA86F
:1006700004F0EBFE20001BA905F05AF806001BA8A9
:1006800004F09CFE013607D0A749684604F03CFF01
:10069000A64903A804F038FFA5491BA804F0D5FE1D
:1006A00020001BA905F044F806001BA804F086FEF4
:1006B000013607D09C49684604F026FF9D4903A8EF
:1006C00004F022FF9C491BA804F0BFFE20001BA9D8
:1006D00005F02EF806001BA804F070FE013607D0C6
:1006E0009649684604F010FF954903A804F00CFFF2
:1006F00094491BA804F0A9FE20001BA905F018F8D6
:1007000006001BA804F05AFE013607D08B49684644
:1007100004F0FAFE8C4903A804F0F6FE8B4E1BA8E9
:10072000310004F092FE20001BA905F001F8210021
:10073000C21C0FA8FFF7F4FE1BA804F03FFE310017
:1007400018A804F082FE18A90FA804F0F1FF0022F7
:1007500003000FA91BA805F01FF81BA906A804F0A9
:10076000CBFE1BA804F02AFE18A804F027FE3100D7
:100770001BA804F06AFE1BA90FA805F006F80FA934
:10078000C21C12A8FFF7CCFE1BA804F017FE704C89
:1007900018A8210004F059FE18A912A804F0C8FFF7
:1007A0000022030012A91BA804F0F6FF1BA909A848
:1007B00004F0A2FE1BA804F001FE18A804F0FEFD40
:1007C000210015A804F041FE15A912A804F0B0FFFD
:1007D0006049040018A804F038FE18A912A804F013
:1007E000D4FF621C030012A91BA804F0D5FF1BA9AB
:1007F0000CA804F081FE1BA804F0E0FD18A804F08A
:10080000DDFD15A804F0DAFD0CA804F0E9FF43496A
:1008100018A804F01AFE00240E9BA3425CD84E498F
:100820001BA804F012FE1BA918A804F081FF040005
:100830001BA804F0C3FD01340BD004220CA91BA893
:10084000FFF76EFE1BA90CA804F056FE1BA804F0CF
:10085000B5FD4249280004F057FE6946280004F01F
:1008600098FE3F49280004F09AFE03A9280004F0EE
:1008700090FE3C49280004F092FE06A9280004F0EE
:1008800088FE3949280004F08AFE09A9280004F0EE
:1008900080FE3649280004F082FE0CA9280004F0EE
:1008A00078FE18A804F08AFD12A804F087FD0FA8AE
:1008B00004F084FD0CA804F081FD09A804F07EFD7D
:1008C00006A804F07BFD03A804F078FD684604F058
:1008D00075FD28001FB0F0BD21000CA804F0E2FE59
:1008E000102201781BA804F020FE1BA918A804F010
:1008F00050FE1BA804F062FD01348DE7076000087C
:10090000C06000087661000881640008B05F0008DC
:100910003075000014600008236000089162000830
:100920002A600008326000083D6000083660000858
:10093000466000084A6000084F6000085A600008DE
:10094000536000086360000867600008AB5F000840
:10095000AD5F0008405F00086C6000087D60000823
:10096000856000088E60000898600008A360000899
:1009700070B58CB0002304006846FFF723FE214EBB
:1009800009A8310004F0E3FD684609A904F0D0FE8F
:10099000050009A804F012FD013509D120001A490B
:1009A00004F053FD684604F009FD20000CB070BD52
:1009B000310006A804F049FD06A9684604F0B8FE17
:1009C0000500124909A804F040FD09A9684604F091
:1009D000AFFE2A0003006946083203A804F0DCFEDB
:1009E00009A804F0EBFC06A804F0E8FC03A804F056
:1009F000F7FE200003A904F05BFD03A804F0DEFC71
:100A0000D0E7C0468F600008AD600008986000081D
:100A1000F0B5150087B004000F0003A8194904F0D1
:100A200014FD280003A904F083FE060003A804F0C7
:100A3000C5FC013621D0144903A804F006FD03A922
:100A4000280004F075FE2900821C6846FFF768FD47
:100A500003A804F0B3FC684604F0C2FE684604F044
:100A6000E8FE0123020039002000FFF7ABFD6846D5
:100A700004F0A4FC200007B0F0BD2000034904F0FE
:100A8000E4FCF7E7B8600008BF600008C260000837
:100A900070B50C0086B0164903A804F0D6FC03A973
:100AA000200004F045FE050003A804F087FC2E009A
:100AB000013519D00F4903A804F0C7FC03A9200091
:100AC00004F036FE2100821C6846FFF729FD03A8CA
:100AD00004F074FC684604F083FE684604F0A9FE46
:100AE0000600684604F06AFC300006B070BDC046DF
:100AF000B8600008BF60000830B504000D0085B084
:100B00001149006804F09CFB0A222900206804F0C7
:100B100002FC0E49206804F093FB2000FFF7A8FBBD
:100B20000B4901A804F091FC200001A9083004F051
:100B3000FFFD04000134631E9C4101A804F03EFC4B
:100B4000E0B205B030BDC046D460000810600008B7
:100B5000405F000870B504000D7801F0ADFB8542E0
:100B600003D02900200001F0E1FB70BD70B5040046
:100B70000D7801F0A1FB854203D02900200001F08F
:100B8000D5FB70BDF8B5642004F056F8194D1A492C
:100B9000280004F085FB194E2800310004F05BFBAF
:100BA0000F241F270121380003F0CAFF00211E2057
:100BB00003F0C6FF322004F03FF80021380003F0B4
:100BC000BFFF01211E2003F0BBFF013C322004F0D7
:100BD00033F8E4B228000A4904F03DFB002CE1D1CF
:100BE00001211F2003F0ACFF3100280004F058FB66
:100BF000F8BDC046BC000020916200088A61000870
:100C000088610008F8B52A4C80272000294904F0A3
:100C100033FB00251E26FF00FF21280001F086FB84
:100C2000300003F0CBFF013541424141300003F079
:100C300087FFBD42F0D1204E2000310004F01CFBA4
:100C4000802720001D4904F0FBFA0025FF00280042
:100C500001F032FB013501000A22200004F057FBAD
:100C6000BD42F4D11649200004F006FB31002000FB
:100C700004F002FB01261F253100280003F060FF6D
:100C800031001E2003F05CFF192003F0D5FF28007F
:100C9000002103F055FF00211E2003F051FF192011
:100CA00003F0CAFF2000074904F0E6FAE4E7C04673
:100CB000BC000020DD600008FD6000080361000842
:100CC0000C61000819610008F7B506000F00002448
:100CD0008D68AC4207DB6B46D91D0023A8190B7049
:100CE000FFF738FFF7BD2100380004F0DBFC0100FE
:100CF0003019FFF72FFF0134EBE770B5050086B020
:100D000008000E00002401F0D7FA002801D0142CAE
:100D10000AD16A460023043211002800135504F05A
:100D200094FB280006B070BDA01901F0C5FA6B460F
:100D3000043318550134E8E7F0B500255D4C8027F1
:100D400020005D4985B004F07BFA2E00FF002800EA
:100D500001F0B2FAFF384342584101353618BD421E
:100D6000F5D1FA272000554904F086FA7F00BE42EB
:100D700023D92000524904F07FFA1E241F250021A8
:100D8000280003F0DDFE00211E2003F0D9FE6420C0
:100D900003F052FF0121280003F0D2FE013C0121A3
:100DA0001E2003F0CDFEE4B2642003F045FF002CCA
:100DB000E5D100F0A5F805B0F0BD4249200004F0EF
:100DC0005BFA414B186801F077FA421E90413F4BA5
:100DD00018703F4B186801F06FFA421E90413D4B6E
:100DE0000021187001A8FFF788FF3B4D01A92800DA
:100DF00004F082FB01A804F0E1FA642101A8FFF7E6
:100E00007CFF364E01A9300004F076FB01A804F007
:100E1000D5FAC82101A8FFF770FF01A9304804F0F6
:100E20006BFB01A804F0CAFA962101A84900FFF75C
:100E300064FF01A92B4804F05FFB01A804F0BEFA8F
:100E4000C82101A84900FFF758FF01A9264804F06E
:100E500053FB01A804F0B2FA390001A8FFF74DFFD7
:100E600001A9224804F048FB01A804F0A7FA962142
:100E700001A88900FFF741FF01A91D4804F03CFBD0
:100E800001A804F09BFA1B4F2800390004F0F5FB81
:100E9000002800D18FE73900300004F0EEFB002875
:100EA00000D188E72000144904F0E6F90022134B32
:100EB0001A7080E7BC000020036100080C61000884
:100EC000306100084A61000804000020810200200F
:100ED0000000002080020020740200206802002030
:100EE0005C02002050020020440200203802002052
:100EF0002C0200206A6100087861000808000020C8
:100F00007FB5802600241F25F6000021200001F077
:100F10000DFA280003F052FE0134414241412800FD
:100F200003F00EFEB442F0D12B4901A804F0DAFA26
:100F300001A90020FFF7C8FE01A804F03FFA2749E5
:100F400001A804F0CFFA01A96420FFF7BDFE01A8B3
:100F500004F034FA224901A804F0C4FA01A9C82017
:100F6000FFF7B2FE01A804F029FA1E4901A804F017
:100F7000B9FA962001A94000FFF7A6FE01A804F0E7
:100F80001DFA194901A804F0ADFAC82001A94000D2
:100F9000FFF79AFE01A804F011FA144901A804F021
:100FA000A1FAFA2001A94000FFF78EFE01A804F083
:100FB00005FA0F4901A804F095FA962001A98000CE
:100FC000FFF782FE01A804F0F9F90A490A4804F083
:100FD00053F9FFF7B1FE7FBD7402002068020020C4
:100FE0005C02002050020020440200203802002051
:100FF0002C020020FD600008BC00002030B501215B
:1010000085B0C02003F040FD0121C12003F03CFD6C
:1010100001211F2003F038FD01211E2003F034FDC3
:101020000021C42003F030FD0121C52003F02CFD78
:1010300002211A2003F028FDE121334C0622200072
:10104000490204F087F8E12106223048490204F001
:1010500081F8FFF797FD2E49200004F00DF92D4986
:10106000200004F009F92C49200004F005F92B496F
:10107000200004F001F9642003F0DEFD1A2003F0E3
:101080009DFD002801D1FFF73BFFFFF755FE244BE4
:10109000C020197803F054FD0F2003F0CDFD214B43
:1010A000C120197803F04CFD0121C52003F048FD53
:1010B0001D4803F0C1FD0021C52003F041FDFA20C9
:1010C000C00003F0B9FD1948FFF772F9184D280068
:1010D000FFF76EF91F2003F071FD414241411F20CF
:1010E00003F02EFD2900134A01A8FFF7B3F901A868
:1010F00004F064F9FA20400003F09EFD20000E4940
:1011000004F0BAF805B030BDBC0000205008002043
:101110008C610008BC610008D2610008DD61000834
:1011200081020020800200204C040000A402002064
:1011300084020020F261000805620008F0B5224E2A
:1011400087B0337805000C0000AF012B11D10B33B1
:101150001E49F81804F0FBF90C232000F91804F0DC
:10116000B1F921001A4804F091F80C23F81804F0A2
:1011700025F96946A36820005A1C0833DB08DB0008
:10118000CB1A9D467B606946002304F0A7FA6946A6
:10119000AB6828005A1C0833DB08DB00CB1A9D46DD
:1011A0000023694604F09AFA7A6869460948FFF70D
:1011B000BFF93378013B1A1CDBB2002B00D10122AE
:1011C000BD46327007B0F0BD090000200B62000878
:1011D000BC0000208402002030B505008BB03849E7
:1011E00001A804F032F9374C01A8210004F0D7F926
:1011F000354901A804F0D3F9344901A804F0C9F92C
:10120000210001A804F0CBF9314901A804F0C7F985
:10121000304901A804F0BDF9210001A804F0BFF98C
:101220002D4901A804F0BBF92C4901A804F0B1F93B
:10123000210001A804F0B3F9294901A804F0AFF98D
:10124000284901A804F0A5F9210001A804F0A7F994
:10125000254901A804F0A3F9244901A804F099F94B
:10126000210001A804F09BF9214901A804F097F995
:10127000204901A804F08DF9210001A804F08FF99C
:101280001D4901A804F08BF91C4901A804F081F95B
:10129000290004A804F026F901A907A804F022F9FE
:1012A00007A904A8FFF74AFF07A804F087F804A8D5
:1012B00004F084F801A804F081F80BB030BDC046FA
:1012C000856200088F6200089262000874020020A4
:1012D0009562000868020020986200085C02002005
:1012E0009B620008500200209E6200084402002019
:1012F000A162000838020020A46200082C0200202D
:1013000030B505008BB02C4901A804F09EF82B4C99
:1013100001A8210004F043F9294901A804F03FF98C
:10132000284901A804F035F9210001A804F037F993
:10133000254901A804F033F9244901A804F029F94A
:10134000210001A804F02BF9214901A804F027F994
:10135000204901A804F01DF9210001A804F01FF99B
:101360001D4901A804F01BF91C4901A804F011F95A
:10137000210001A804F013F9194901A804F00FF99C
:10138000184901A804F005F9290004A804F0AAF8F6
:1013900001A907A804F0A6F807A904A8FFF7CEFE44
:1013A00007A804F00BF804A804F008F801A804F05A
:1013B00005F80BB030BDC046856200088F6200089A
:1013C000986200085C0200209B6200085002002026
:1013D0009E62000844020020A1620008380200203A
:1013E000A46200082C020020F0B50D00040043495F
:1013F000280093B004F041F9414F00283FD03E78D7
:10140000002E00D090E0012321000FA83B7004F0D3
:1014100069F830000FA9FFF757FC0FA803F0CEFFC3
:10142000384E2100300004F04DF8374909A804F087
:101430008EF8364909A804F0B2F8354909A804F035
:10144000D7F831000CA804F04DF809A90FA804F052
:1014500049F80FA90CA8FFF771FE0FA803F0AEFF23
:101460000CA803F0ABFF2B4E2000310004F04CF829
:101470003100280004F048F809A803F09FFF3B78EA
:10148000002B51D1244909A804F061F809A9234887
:1014900003F0FCFE21000CA804F024F809A90FA811
:1014A00004F020F80FA90CA8FFF748FE0FA803F0DE
:1014B00085FF0CA803F082FF164E2000310004F0D7
:1014C00023F83100280004F01FF8154A15490FA829
:1014D000FEF7C0FF0FA803F071FFFA20800003F0B1
:1014E000ABFB3100200004F00FF83100280004F0BD
:1014F0000BF809A803F062FF13B0F0BDA762000863
:101500000800002074020020B06200088F6200080A
:10151000BB62000891620008DD620008BC00002088
:10152000F2610008840200202000EE4904F098F8DF
:10153000061E00D003262000EB4904F091F8002895
:1015400000D003262000E94904F08AF8002800D0E2
:1015500003262000E64904F083F8002800D0032683
:101560002000E44904F07CF8002800D00226E2497B
:10157000200004F075F8E149002800D196E220002F
:1015800004F06EF80126AB68012B00D897E2280022
:10159000DB4904F072F8002802D0012E00D198E255
:1015A0002800D84904F069F800284AD0D64909A88B
:1015B00003F04BFFD54B0FA819000093FEF78EFEEA
:1015C0000FA909A803F0E5FF0FA803F0F7FED04F1D
:1015D00009A8390003F0E3FFCE4909A803F0DFFFB3
:1015E0000098FEF751FF010009A803F0F0FF390051
:1015F00009A803F0D4FF390009A803F0D0FFC649B9
:1016000009A803F0CCFF21000CA803F06BFF09A987
:101610000FA803F067FF0FA90CA8FFF78FFD0FA815
:1016200003F0CCFE0CA803F0C9FEBC4F200039002B
:1016300003F06AFF3900280003F066FF09A803F0F1
:10164000BDFE2800B64904F018F8002831D0002368
:10165000B44F3B70B44B39001868FFF787FA3978FC
:10166000C02003F06DFAB14909A803F0EEFE09A904
:10167000AF4803F00BFE21000CA803F033FF09A9CB
:101680000FA803F02FFF0FA90CA8FFF757FD0FA815
:1016900003F094FE0CA803F091FEA04F2000390047
:1016A00003F032FF3900280003F02EFF09A803F0F1
:1016B00085FE28009F4903F0E0FF002831D0012378
:1016C000984F3B70984B39001868FFF74FFA3978FC
:1016D000C02003F035FA984909A803F0B6FE09A91D
:1016E000934803F0D3FD21000CA803F0FBFE09A9E9
:1016F0000FA803F0F7FE0FA90CA8FFF71FFD0FA816
:1017000003F05CFE0CA803F059FE844F2000390062
:1017100003F0FAFE3900280003F0F6FE09A803F0F2
:101720004DFE2800854903F0A8FF002831D0002392
:10173000834F3B70834B39001868FFF717FA3978ED
:10174000C12003F0FDF9804909A803F07EFE09A934
:10175000774803F09BFD21000CA803F0C3FE09A904
:101760000FA803F0BFFE0FA90CA8FFF7E7FC0FA816
:1017700003F024FE0CA803F021FE684F200039007E
:1017800003F0C2FE3900280003F0BEFE09A803F0F2
:1017900015FE28006D4903F070FF002831D00123A9
:1017A000674F3B70674B39001868FFF7DFF93978EE
:1017B000C12003F0C5F9664909A803F046FE09A94E
:1017C0005B4803F063FD21000CA803F08BFE09A920
:1017D0000FA803F087FE0FA90CA8FFF7AFFC0FA816
:1017E00003F0ECFD0CA803F0E9FD4C4F200039009C
:1017F00003F08AFE3900280003F086FE09A803F0F2
:10180000DDFD2800534903F038FF002845D0524938
:1018100009A803F01AFE3E4B09A81900009303F033
:10182000BEFE4E4909A803F0BAFE3E4F3B78002B9E
:1018300000D06FE14A4909A803F0B1FE009909A858
:1018400003F0ADFE474909A803F0A9FE3C4F3B78E1
:10185000002B00D067E1424909A803F0A0FE210057
:101860000CA803F03FFE09A90FA803F03BFE0FA947
:101870000CA8FFF763FC0FA803F0A0FD0CA803F071
:101880009DFD264F2000390003F03EFE3900280060
:1018900003F03AFE09A803F091FD334F2800390008
:1018A00003F0EBFE002800D146E1012E00D043E119
:1018B00021000FA803F016FE0FA8FFF78DFC0FA85C
:1018C00003F07CFD154B20001900009303F01CFE73
:1018D0000099280003F018FE3900280003F0CDFE1F
:1018E00044E0C0462C0200203802002044020020C0
:1018F000500200205C0200207402002068020020D8
:101900000E630008176300088F630008840200203C
:101910008F6200089A630008AB63000891620008B8
:10192000CB6300088102002004000020D36300087C
:10193000BC0000205B640008E2630008EF6300085D
:101940008002002000000020F76300086A6400089D
:1019500006640008136400081A640008286400087C
:10196000EA630008316400083A6400082800AE49C0
:1019700003F083FE002800D188E0AC4909A803F0F9
:10198000E6FDAB4B09A81900009303F008FEA94936
:1019900009A803F02DFE009909A803F000FEA6494E
:1019A00009A803F025FE009909A803F0F8FD731EAD
:1019B000DBB20193012B07D8390009A803F0EFFD32
:1019C000009909A803F0EBFD9C4909A803F010FE5B
:1019D000974F09A8390003F0E2FD994909A803F0DF
:1019E00007FE390009A803F0DAFD019B012B27D877
:1019F000944909A803F0FCFD390009A803F0CFFDC4
:101A00009149012E08D1914909A803F0F1FD39004F
:101A100009A803F0C4FD8E4909A803F0E9FD3900C7
:101A200009A803F0BCFD824F09A8390003F0B7FDF7
:101A3000884909A803F0DCFD390009A803F0AFFDCF
:101A40007B4909A803F0ABFD834909A803F0D0FD49
:101A500021000CA803F046FD09A90FA803F042FDE0
:101A60000FA90CA8FFF76AFB0FA803F0A7FC0CA8AE
:101A700003F0A4FC794F2000390003F045FD390044
:101A8000280003F041FD09A803F098FC74490FA851
:101A900003F0DBFC28000FA903F04AFE002803D165
:101AA000731EDBB2012B66D90FA823E5200003F0DB
:101AB000D7FD002800D065E5002E00D063E5674F14
:101AC0002000390003F020FD3900280003F01CFD40
:101AD0005DE5644909A803F03AFD21000CA803F074
:101AE00001FD09A90FA803F0FDFC0FA90CA8FFF741
:101AF00025FB0FA803F062FC0CA803F05FFC574E17
:101B00002000310003F000FD3100280003F0FCFC50
:101B1000FFF778F8544909A803F041FD3B78002B02
:101B200000D08BE686E6504909A803F038FD3B78E3
:101B3000002B00D093E68EE63900280003F09DFDCF
:101B4000002800D112E7022E00D00FE721000FA8D5
:101B500003F0C8FC0FA8FFF7D3FB0FA803F02EFC7F
:101B60003E4B20001900009303F0CEFC28000099A2
:101B700003F0CAFCFAE60FA803F020FC04230322BA
:101B8000290003A803F008FE38490FA803F05DFC04
:101B900028000FA903F0CCFD07000FA803F00EFCEE
:101BA000052F00D09DE13A00AB68290006A803F09C
:101BB000F3FD089B043F0B3B042B63D92C4909A878
:101BC00003F0C5FC2B4809A903F060FB21000CA819
:101BD00003F088FC09A90FA803F084FC0FA90CA846
:101BE000FFF7ACFA0FA803F0E9FB0CA803F0E6FB43
:101BF0001A4903A803F088FC09A803F0DFFB06A834
:101C000003F0DCFB03A875E4390006A803F062FDCD
:101C10003038092834D91849164803F02DFB1749E4
:101C200009A803F094FCD1E7426400084764000867
:101C30008F620008526400086164000813640008A1
:101C40001763000870640008956400088364000846
:101C50000E630008A3640008D464000891620008C1
:101C6000E56400081E630008DB630008E9640008FF
:101C7000EB640008BC0000202D65000841650008E9
:101C80000137FFB2089B9F42BED3A64903A803F0C9
:101C9000F4FCA54F002800D1FAE0012E00D1BDE0F0
:101CA000390003A803F0E9FCA04903A803F0E5FC10
:101CB00000281BD006A90FA803F014FC0FA9C82008
:101CC000FFF702F80FA803F079FB06A9984803F084
:101CD000F9FB21000FA8012E00D0E4E003F002FC84
:101CE0000FA8FFF779FA0FA803F068FB914903A842
:101CF00003F0C3FC00281CD006A90FA803F0F2FBD8
:101D000096200FA94000FEF7DFFF0FA803F056FB57
:101D100006A9894803F0D6FB21000FA8012E00D0A8
:101D2000C7E003F0DFFB0FA8FFF756FA0FA803F098
:101D300045FB824903A803F0A0FC00281CD006A99B
:101D40000FA803F0CFFBC8200FA94000FEF7BCFF8F
:101D50000FA803F033FB06A9794803F0B3FB210079
:101D60000FA8012E00D0AAE003F0BCFB0FA8FFF7DC
:101D700033FA0FA803F022FB724903A803F07DFC9D
:101D800000281CD006A90FA803F0ACFBFA200FA96D
:101D90004000FEF799FF0FA803F010FB06A96A4860
:101DA00003F090FB21000FA8012E00D08DE003F07E
:101DB00099FB0FA8FFF710FA0FA803F0FFFA634989
:101DC00003A803F05AFC00281BD006A90FA803F0B3
:101DD00089FB96200FA98000FEF776FF0FA803F07D
:101DE000EDFA06A95A4803F06DFB21000FA8012E59
:101DF00071D103F077FB0FA8FFF7EEF90FA803F0FE
:101E0000DDFA06A803F0DAFA524E2000310003F0A2
:101E10007BFB3100280003F077FBF3E606A90FA84F
:101E200003F060FB0FA90020FEF74EFF0FA803F0A0
:101E3000C5FA06A9484803F045FB21000FA803F0A6
:101E400051FB0FA8FFF7C8F90FA803F0B7FA390044
:101E500003A803F012FC002800D125E706A90FA86B
:101E600003F040FB0FA96420FEF72EFF0FA803F03C
:101E7000A5FA06A9394803F025FB21000FA803F0B5
:101E800031FB0FA8FFF7A8F90FA803F097FA0BE7AB
:101E9000390003A803F0F1FB002800D104E7012E6C
:101EA00000D001E7DAE703F01DFB0FA8FFF728FADF
:101EB00019E703F017FB0FA8FFF722FA36E703F044
:101EC00011FB0FA8FFF71CFA53E703F00BFB0FA859
:101ED000FFF716FA70E703F005FB0FA8FFF710FAFB
:101EE0008CE71F4909A803F032FB21000CA803F07E
:101EF000F9FA09A90FA803F0F5FA0FA90CA8FFF742
:101F00001DF90FA803F05AFA0CA803F057FA114E66
:101F10002000310003F0F8FA3100280003F0F4FA51
:101F200009A86FE77065000872650008766100080F
:101F30005C020020816400085002002074650008E3
:101F4000440200207B60000838020020766500080B
:101F50002C02002091620008740200206802002018
:101F600078650008F7B5234D234C244F29002448F9
:101F70000B26276003F069FA0D2301226661A36135
:101F80002277204C29002048276003F05EFA0D23B9
:101F90000122A361227766611C4C1D48210003F0D9
:101FA00054FA21001B4803F050FA21001A4803F0AC
:101FB0004CFA2100194803F048FA2100184803F0B0
:101FC00044FA2100174803F040FA2100164803F0B4
:101FD0003CFA2100154803F038FA2900144803F0B0
:101FE00034FA272309220A210093124802F064FFE1
:101FF000F7BDC04691620008A402002050080020EE
:10200000AC020020840200208C0200206A610008DB
:1020100074020020680200205C02002050020020B0
:1020200044020020380200202C0200202002002060
:1020300014020020BC00002010B5114803F0BEF9C6
:10204000104803F0BBF9104803F0B8F90F4803F04B
:10205000B5F90F4803F0B2F90E4803F0AFF90E4896
:1020600003F0ACF90D4803F0A9F90D4803F0A6F907
:102070000C4803F0A3F90C4803F0A0F910BDC046CA
:1020800014020020200200202C0200203802002030
:1020900044020020500200205C0200206802002060
:1020A000740200208C020020AC020020F0B5704DBC
:1020B0008FB0280002F0CFFD6E4C200002F0CBFD67
:1020C000002800D186E0210002A803F063F96A49E4
:1020D0000BA803F0BAF90BA902A803F029FB04002E
:1020E0000BA803F06BF902A9013400D189E00BA819
:1020F00003F0F8F9614C0BA92000FEF7C9FC0700BA
:102100000BA803F05BF95E49280003F099F83A0048
:1021100021000BA8FEF72CFC5A4B0BA918000193C9
:1021200003F0EAF90BA803F049F902A90BA803F0A0
:10213000D9F90BAA210005A8FEF76AFC0BA803F049
:102140003DF9514908A803F080F908A905A803F052
:10215000EFFA079B421D05A90BA803F01DFB4B4E90
:102160000BA9300003F0C8F90BA803F027F908A861
:1021700003F024F94649280003F062F831002800F2
:1021800003F084F839002000FEF7B6FC05A803F040
:1021900015F9404A21000BA8FEF75CF90BA803F0E3
:1021A0000DF9FA20400002F047FD019908A803F05C
:1021B00099F931000BA803F095F90BA908A8FFF7CE
:1021C00013F90BA803F0FAF808A803F0F7F802A82F
:1021D00003F0F4F800211F2002F0B2FC01211E20C0
:1021E00002F0AEFC642002F027FD01211F2002F066
:1021F000A7FC00211E2002F0A3FC642002F01CFDBD
:1022000033E0280003F042F823490BA803F01DF93E
:102210000BA902A803F08CFA04000BA803F0CEF877
:1022200001341BD01E241F250021280002F088FC49
:1022300000211E2002F084FC642002F0FDFC01213C
:10224000280002F07DFC013C01211E2002F078FCF8
:10225000E4B2642002F0F0FC002CE5D10F4902A8A2
:1022600003F052F902A803F0A9F80FB0F0BDC04680
:10227000BC00002050080020B86000088402002044
:10228000B965000820020020A760000814020020A1
:10229000C3650008F26100081D6000089162000833
:1022A000802210B502480349D20003F08BFD10BD17
:1022B000C802002000FC000810B50400FFF7F0FF82
:1022C000014B185D10BDC046C8020020002330B588
:1022D00085B000930193124B02930123039300F006
:1022E0000FFB00281AD114220E4B6946DA6001A8B0
:1022F00000F0B8FB041E0FD18025ED000A4B084901
:10230000E31803201A685B68611800F041FB00289D
:1023100002D10834AC42F1D100F006FB05B030BD6B
:1023200000FC000800200240C802002010B5024B4B
:102330001954FFF7CBFF10BDC802002003000A4963
:1023400010B50868C318EFF30882934205D90C2230
:102350000120064B40421A6010BD054A054C121B75
:102360009342F4D20B60F7E70C000020000B002032
:102370000020002000040000FEE7000016220120DB
:10238000014B40421A607047000B0020012070474B
:10239000836810B50400002B05D003220100984784
:1023A0000023A360E36010BD836810B50400002B18
:1023B00002D0032201009847200010BD114A0300FB
:1023C000002093421CD0104A0130934218D00F4A8B
:1023D0000130934214D00E4A0130934210D00D4A7E
:1023E000013093420CD00C4A0130934208D00B4A82
:1023F0009B185A4253415842094B1840094BC01888
:102400007047C046002C014000040040001000400E
:1024100000200040004001400044014000B8FEBFE1
:102420000700FFFFFFFF000070B504000069FFF721
:10243000C5FF05002000103001F01EFF0022084BF0
:10244000AD00EA5026002500E260B0356036B542A6
:1024500004D0103D2800FFF7A7FFF8E7200070BD6B
:10246000C8060020F7B5040008000D00FFF7A6FF1E
:102470001F4FB84200D1FEE72369002B00D0FEE7D2
:1024800021001C4A80000C31815022002C32256131
:1024900026001370203223636363A363E363236422
:1024A0006364A3641370537003221036E365300035
:1024B000E460A26501F06CFE23002500B0336035B6
:1024C00001932800FFF764FF019B10359D42F8D16E
:1024D000002323606360A3606361A361236263627E
:1024E00080333000E761A36200F0B4FEF7BDC04660
:1024F000FFFF0000C8060020044B10B51868002834
:1025000002D0043000F0BEFD10BDC046C806002059
:1025100010B5FFF7F1FF10BD044B10B55868002847
:1025200002D0043000F0AEFD10BDC046C806002049
:10253000044B10B59868002802D0043000F0A2FDCA
:1025400010BDC046C8060020044B10B5D86800284E
:1025500002D0043000F096FD10BDC046C806002031
:10256000044B10B51869002802D0043000F08AFD31
:1025700010BDC046C8060020044B10B5586900289D
:1025800002D0043000F07EFD10BDC046C806002019
:10259000044B10B59869002802D0043000F072FD99
:1025A00010BDC046C806002010B50C220021040052
:1025B00003F090FB00232000E36010BDF8B5050098
:1025C000070004000E006035B03728001035FFF713
:1025D000EBFFBD42F9D10023310020002361FFF75A
:1025E00041FF2000F8BD836810B5002B01D103F036
:1025F00095FCC368984710BD10B5002800D1FEE7D0
:1026000001F0C4FD0068836E002B02D06030FFF73C
:10261000EAFF10BD10B5FFF7EFFF10BD030010B5C6
:10262000002800D1FEE7007F0138072812D8FDF707
:1026300059FD04161112111111140124180001F092
:10264000A5FD06340068240100198368002B01D021
:10265000FFF7C9FF10BD0324F0E70424EEE70224CE
:10266000ECE710B5FFF7DAFF10BD10B5FFF7D6FFA6
:1026700010BD10B503F094F910BD10B503F09AF930
:1026800010BD704770B50500FA200D4B8000197819
:10269000FDF732FD0B4C01002068FDF72DFD00F029
:1026A0007DF804000120002C09D1032D07D8023841
:1026B0002200290000F02CF82000034B1D6070BDA3
:1026C0001000002048000020140000201023064ABB
:1026D00010B5116800200B431360FFF7D3FFFFF71D
:1026E000D0FF002010BDC04600200240034A044B2A
:1026F00011681B785B1813607047C046E406002021
:1027000010000020014B18687047C046E406002006
:1027100010B5FF2403220B0021000240D20091409B
:102720009B012340C943934000280ADBC0240B4A85
:10273000800880008018A40002590A401343035106
:1027400010BD0F2210400838054A8008800080180C
:10275000C26911401943C161F2E7C04600E100E0DF
:1027600000ED00E0002805DB1F2318401E3B8340DE
:10277000014A13607047C04600E100E0002809DB11
:102780001F2318401E3B8340034AD367BFF34F8F7C
:10279000BFF36F8F7047C04604E100E08022431E04
:1027A0005204012093420DD2C021074A07485360CA
:1027B000036A09061B021B0A0B430362002007235E
:1027C000906013607047C04610E000E000ED00E04C
:1027D000002807DB1F23C02218401E3B834002490C
:1027E00052008B507047C04600E100E0704710B5C2
:1027F000FFF7FCFF10BD704710B504000120002C4E
:102800001ED0637DDAB2002B03D120002275FFF7C2
:10281000F2FF0223227963752368002A11D1013A5D
:1028200060211A619A6800208A43E1680A43802186
:102830009A609A688A4321690A439A600123637502
:1028400010BDA268ECE730B5841CE27F0300022AC9
:1028500006D004228263012000220133DA7730BDE2
:1028600002680E2011688143116001210D0010687B
:1028700088431060186CDA6B854000205560E17762
:10288000EAE770B5841CE37F022B03D00423836343
:10289000012070BD0E2103681A688A431A60012264
:1028A0001500196891431960016CC36B8D405D6020
:1028B000E27783180022DA77436B934200D098477F
:1028C0000020E6E70C4A1021D06830B503000B4029
:1028D000084205D002230948C4692343C3610B00A1
:1028E0000420D168014205D00121044C0343E5696D
:1028F0002943E161D36030BD00200240E80600209A
:10290000064B00201A69120606D5054A5A60054A88
:102910005A6018690006C00F7047C0460020024088
:1029200023016745AB89EFCD8023034A002011695D
:102930000B4313617047C0460020024070B504008D
:10294000FFF7E0FE01260500104BDA68324211D194
:102950002022D968114200D0DA60D968102208001C
:102960001040114202D1DB685B0708D5FFF7AAFFD0
:10297000012004E0621CE8D0002C01D1032070BDCE
:10298000FFF7C0FE401BA042DED9F7E7002002405F
:10299000F0B585B003931E4B009102921A7E04009D
:1029A0000220012A31D001221A481A76FFF7C6FF09
:1029B000002827D12600012C03D00426022C00D1A8
:1029C00026000024124B0193029803992201FDF77F
:1029D0001FFC00220127019B0F4DDA612B69009A31
:1029E0003B432B6163009B1880B218800948FFF7B6
:1029F000A5FF2B69BB432B61002803D1E419E3B287
:102A00009E42E1D80022024B1A7605B0F0BDC046C6
:102A1000E806002050C30000002002400022064BC0
:102A2000DA61064B043219690A431A6140221969B6
:102A30000A431A617047C046E806002000200240A1
:102A40000022064BDA61064B023219690A431A6109
:102A50004022586119690A431A617047E80600204C
:102A600000200240F8B5214F04003B7E0E000220FA
:102A7000012B0CD001233B7623681D48012B12D17A
:102A8000FFF75CFF002803D0012000233B76F8BD50
:102A9000FFF7C4FF1648FFF751FF0421154A1369D9
:102AA0008B431361F1E7FFF749FF0028ECD10123C5
:102AB0005B42336065680130A36862689B029B18C3
:102AC000AB42E2D92800FFF7BBFF0948FFF736FF0A
:102AD0000221084A13698B431361002801D0356035
:102AE000D3E78023DB00ED18E6E7C046E8060020C8
:102AF00050C3000000200240044B10B55A69104238
:102B000002D0586101F0AAFE10BDC0460004014089
:102B1000F0B5040085B0002845D00368DB072FD44A
:102B200023689B0700D581E023681B0700D5BCE024
:102B300023685B0700D5DFE02368DB061AD56269EE
:102B40000423B44D012A00D048E1696B02270B43EE
:102B50006B636B6B1A436A63FFF7D4FD06006B6B04
:102B60003B4200D133E1F8216A6BA3698A43DB0061
:102B700013436B63236A002B00D057E100202AE047
:102B80000C22A44D6B681340042B06D06B681340D5
:102B9000082B0AD16B68DB0307D52B689B03BFD5D5
:102BA0006368002BBCD1012015E06368012B14D1B0
:102BB00080232A685B0213432B60FFF7A3FD802765
:102BC0000600BF022B683B42AAD1FFF79BFD801B8A
:102BD0006428F7D9032005B0F0BD002B16D12B686F
:102BE0008D4A802713402B602B688C4ABF0213400C
:102BF0002B60FFF787FD06002B683B4200D18FE773
:102C0000FFF780FD801B6428F6D9E3E7052B05D18B
:102C100080232A68DB0213432B60C9E72B687E4AB6
:102C200013402B602B687D4A1340C5E70C22794D79
:102C30006B68134206D06B681340082B10D16B6889
:102C4000DB030DD42B689B0702D5E368012BAAD1C7
:102C5000F8212A6823698A43DB0013432B6063E76A
:102C6000E2680123002A0FD02A68022713432B6051
:102C7000FFF748FD06002B683B42E9D1FFF742FD14
:102C8000801B0228F7D9A5E72A6802279A432A6001
:102C9000FFF738FD06002B683B4200D144E7FFF701
:102CA00031FD801B0228F6D994E7E2690123594DD2
:102CB000002A10D06A6A022713436B62FFF722FDD5
:102CC00006006B6A3B4200D032E7FFF71BFD801B1A
:102CD0000228F6D97EE76A6A02279A436A62FFF7FA
:102CE00011FD06006B6A3B4200D121E7FFF70AFDA8
:102CF000801B0228F6D96DE780220021454D520540
:102D0000EB690091134208D1EB691343EB61EB6966
:102D100013400393039B012300938027404E7F00C1
:102D200033683B4215D0A368012B22D12A6A134392
:102D30002B62FFF7E7FC022706002B6A3B423FD0DD
:102D4000009B012B00D0F7E6EB69364A1340EB619C
:102D5000F2E633683B433360FFF7D4FC01903368FD
:102D60003B42E0D1FFF7CEFC019BC01A6428F6D9A4
:102D700030E70122002B14D12B6A022793432B62E8
:102D80002B6A033293432B62FFF7BCFC06002B6ACD
:102D90003B42D5D0FFF7B6FC234B801B9842F6D9B7
:102DA00018E7052B05D1296A013B0B432B622B6ADF
:102DB000BDE72B6A934304222B622B6A9343B7E748
:102DC000FFF7A0FC184B801B9842B6D902E7FFF72B
:102DD00099FC801B022800D8C1E6FBE6053203D12E
:102DE0006A6B9A436A63BEE66A6B02271343012249
:102DF0006B636B6B93436B63FFF784FC06006B6B39
:102E00003B4200D1B6E6FFF77DFC801B0228F6D9D5
:102E1000E0E6C04600100240FFFFFEFFFFFFFBFFA1
:102E200000700040FFFFFFEF881300000C21344DBD
:102E30006A680A40082A47D0324A022B32D12B68EE
:102E4000802713402B60FFF75DFC0600BF042B6852
:102E50003B4221D10F22EB6A80269343E26AB604FB
:102E60001343EB62616AA36A6A680B4326490A400E
:102E700013436B6080232A685B0413432B60FFF7C6
:102E800041FC04002B68334200D077E6FFF73AFCA0
:102E9000001B0228F6D99DE6FFF734FC801B0228B0
:102EA000D5D997E62B68802613402B60FFF72AFCC4
:102EB0000400B6042B68334200D15FE6FFF722FC22
:102EC000001B0228F6D985E6012B00D16BE6802293
:102ED0006868616A5202EB6A02408A4200D062E688
:102EE0000F221340E26A934200D05CE6F0239B037A
:102EF0001840A36AC01A431E9841C0B26BE6C04690
:102F000000100240FFFFFFFEFFFFC2FF0C2270B562
:102F10000C4D6B681A40082A11D10F200A499A0CEF
:102F200002408C5CEA6ADB0307D508490240895CF1
:102F30000748FDF7E1F8604370BD0648FBE7044829
:102F4000FAE7C04600100240DD650008CD650008C4
:102F500000127A0000093D00F7B504000E000028B9
:102F600001D10120FEBD0122374D2B6813408B4259
:102F70001CD32268930722D4D2072FD401232A68B6
:102F80001A40B24251D82368304D5B0754D4FFF742
:102F9000BDFF6B682E4A1B061B0FD35C2D49D84022
:102FA00008600020FFF76EFB0020DBE72B689343EF
:102FB0000B432B602B6813408B42D2D1D9E72349B6
:102FC000530704D5E0234868DB0003434B60F0203F
:102FD0004B688343A06803434B60CDE71B4F626897
:102FE0003B68012A19D19B03BBD503217B688B4326
:102FF00013437B60FFF786FB01900C237A681A402D
:1030000063689B009A42B9D0FFF77CFB019BC01A12
:10301000114B9842F1D90320A4E7022A02D19B0167
:10302000E3D49EE79B07E0D49BE72A689A432A6093
:103030002A681A42A7D094E76B68084A1340E268EE
:1030400013436B60A3E7C04600200240001002401B
:10305000386600084800002088130000FFF8FFFFD2
:10306000044B054A5B6805495B055B0FCB5C106848
:10307000D840704700100240480000203066000829
:10308000704770470222036810B5196904001142A5
:103090000ED0D96811420BD0053A1A61043202777A
:1030A0009B699B0700D179E0FFF7DFFA00232377C4
:1030B000042223681969114210D0D96811420DD039
:1030C000093A1A61073222779A69C0239B002000CF
:1030D0001A4269D0FFF7C9FA002323770822236830
:1030E000196911420ED0D96811420BD0113A1A61F8
:1030F0000D322277DB6920009B075BD0FFF7B5FA22
:1031000000232377102223681969114210D0D9684F
:1031100011420DD0213A1A6119322277DA69C0239F
:103120009B0020001A424BD0FFF79FFA0023237721
:10313000012223681969114207D0D968114204D0CD
:10314000033A20001A61FFF765FA802223681969A3
:10315000114208D0D968114205D0023AFF3A200046
:103160001A6100F0A0F8402223681969114207D0C3
:10317000D968114204D0813A20001A61FFF781FF1B
:10318000202223681969114207D0D968114204D05E
:10319000413A20001A6100F085F810BDFFF761FA8E
:1031A0002000FFF76DFF81E7FFF75BFA2000FFF7D4
:1031B00067FF91E7FFF755FA2000FFF761FF9FE7F0
:1031C000FFF74FFA2000FFF75BFFAFE710B51A4C8F
:1031D0000368A04202D0194A904208D1702293435A
:1031E0004A681343164A1A40CB6813430BE0154A4A
:1031F0009042F7D0144A9042F4D0144A9042F1D051
:10320000134A9042EED0802293434A6913430360ED
:103210008B68C3620B688362A04208D00A4B984255
:1032200005D00A4B984202D0094B984201D10B6954
:1032300003630123436110BD002C014000040040E2
:10324000FFFCFFFF0020004000400140004401401F
:103250000048014070B504000120002C21D0250059
:103260003D352B78DAB2002B05D123003C3320000A
:103270001A7001F0BFF802232B702068211DFFF7A0
:10328000A5FF220001230020463213704534083A7E
:10329000137053709370D3701371537193712370C3
:1032A0002B7070BD7047704730B5EFF3108401226A
:1032B00082F310880168124D0B682B400B6084F379
:1032C0001088EFF3108482F3108801688B689343B1
:1032D0008B6084F31088036E93420AD1EFF3108160
:1032E00083F31088102402681368A343136081F3EA
:1032F00010882022031DDA6700230366836630BD31
:10330000DFFEFFFF30B5EFF31084012282F3108857
:10331000802501680B68AB430B6084F31088EFF3E2
:10332000108182F310884023026810680343136001
:1033300081F3108830BDC36F10B5212B06D1020078
:1033400052321388002B02D1FFF7DCFF10BDC36C93
:1033500001681C7801330C85C3641388013B9BB260
:103360001380F3E7C36F10B5212B06D10100523152
:103370000B88002B02D1FFF7C5FF10BDC26C04689B
:1033800013880232DB05DB0D2385C2640B88013B09
:103390009BB20B80F1E7704710B5C46F03000220A9
:1033A000202C37D10138002934D0002A32D0802097
:1033B0009C68400184420CD0D964190050310A80C5
:1033C0004A801A0000210832D1672122DA67124AA6
:1033D00012E018690028EFD10C00013004400142CE
:1033E00018D1D964190050310A804A801A00083275
:1033F000D4672122DA67094ADA66EFF310810122E5
:1034000082F310881A68802310680343136081F3E5
:103410001088002010BDC04637330008653300080F
:10342000406A0023020010B55A321380083A138014
:1034300001F0A2F910BD70470168F8B5CB6904002E
:10344000B5480A688E6803420CD12020034200D19F
:10345000A7E0024200D1A4E0A36E2000002B00D020
:1034600095E095E0012035000540064215D0022682
:1034700003422FD133423ED00220270004260862A7
:103480000837F86F3043F867334236D118073ED516
:103490002020104028430DD139E0A04E324200D107
:1034A0007FE0022603420CD15807EFD518072ED52E
:1034B00090062CD5082008622518EE6F3043E86787
:1034C00025E0D0050BD43342EED15807DED5002DD0
:1034D00013D1EBE7D00502D43342CDD1F5E701207B
:1034E000260008620836F76F3843F0679807ECD576
:1034F000002DD9D0C0E75807C8D5042025000862A0
:103500000835EE6F02383043E8671807D2D48020C0
:10351000250000010835034206D0560104D5086293
:103520002021E86F0143E967E96F002930D02021AD
:103530000B4206D00A4204D0A36E002B01D020001B
:1035400098472268EB6F4027966828223E40134038
:1035500020001E4321D0FFF7A7FE23689B683B4253
:1035600017D0EFF31081012383F31088226893684A
:10357000BB43936081F31088606F002809D0684BCB
:103580004363FFF77EF9002802D0606F436B9847D2
:10359000F8BD200001F0F0F8FAE701F0EDF8EE6771
:1035A000F6E7206E012800D095E010252B4200D1CF
:1035B00091E02A4200D18EE00D628B6840211E000E
:1035C0000E400B424FD0626F13685B689BB2002BBA
:1035D000DED02600583637889F42D9D927005A377F
:1035E0003B809369202B32D0EFF3108780F3108853
:1035F00022684C4D13682B40136087F31088EFF35B
:10360000108780F31088226893688343936087F360
:103610001088EFF3108C80F31088230080CBBA68F9
:103620008A43BA608CF310882022DA67002323666D
:10363000EFF3108180F31088226812351368FF358C
:10364000AB43136081F31088606FFFF7FCF802232F
:10365000636623005A331B883188C91A89B2200057
:10366000FFF7E9FE94E72300220058335A32198805
:10367000138812889BB2002A00D189E7C91A89B23F
:10368000002900D184E7EFF3108780F310882268C7
:10369000254D13682B40136087F31088EFF3108CCF
:1036A00080F31088230080CBBA688243BA608CF321
:1036B00010882022DA672666A666EFF3108680F36C
:1036C00010881020226813688343136086F31088E3
:1036D00002236366C3E780210B4203D00A4201D074
:1036E000E36EBAE640210B4200D151E70A4200D115
:1036F0004EE7EFF31080012383F3108822681368EC
:103700008B43136080F310882023E367002320009D
:10371000E36601F02AF83BE70F08000020010004EF
:1037200021340008FFFEFFFFDFFEFFFFF8B50300B6
:10373000011DCC6F5C331A880368222C57D19B8CF7
:10374000446D134002002370436D5A3201334365C8
:103750001388013B9BB2138013889CB2002B42D18B
:10376000EFF31086013383F310880568224F2A682F
:103770003A402A6086F31088EFF3108683F31088AE
:103780000568AA689A43AA6086F310882022CA674F
:10379000026844665268846612020AD5EFF310810B
:1037A00083F310880268154C13682340136081F37B
:1037B0001088036E012B17D100220266EFF31084EC
:1037C00083F3108801680F330A689A430A6084F310
:1037D00010880268D169194200D01362030058337F
:1037E0001988FFF728FEF8BD00F0B8FFFBE70822B4
:1037F00099690A439A61F6E7DFFEFFFFFFFFFFFBCF
:10380000F8B50300021DD16F5C331C8803682229C0
:1038100056D1998C436D21401980010002334365D4
:103820005A310B88013B9BB20B800B889CB2002B5A
:1038300042D1EFF31086013383F310880568234FDC
:1038400029683940296086F31088EFF3108683F3E6
:1038500010880568A9689943A96086F3108820211B
:10386000D167026844665268846612020AD5EFF393
:10387000108183F310880268154C1368234013608D
:1038800081F31088036E012B17D100220266EFF33B
:10389000108483F3108801680F330A689A430A6022
:1038A00084F310880268D169194200D013620300C2
:1038B00058331988FFF7BFFDF8BD00F04FFFFBE755
:1038C000082299690A439A61F6E7C046DFFEFFFFC6
:1038D000FFFFFFFB020070B5783211780300022071
:1038E00001291DD0012122301170D867EFF3108516
:1038F00081F310880C261C682068B043206085F393
:103900001088EFF3108481F3108818680731056878
:103910002943016084F3108820210020D9671070AA
:1039200070BD020070B578321178030002200129C1
:103930001DD0012122301170D867EFF3108581F37B
:1039400010880C261C682068B043206085F310881E
:10395000EFF3108481F31088186803310568294358
:10396000016084F3108820210020D967107070BD99
:10397000C36F0430C06F18437047000070B5040077
:103980002569A26801682A436569C3692A430868F2
:103990003C4D1A43284002430A604A683A48256A67
:1039A0000240E06802434A60A26988682A43374DB2
:1039B000284002438A60364A914215D10321354A94
:1039C000126B0A40013A022A11D83349885C8022DE
:1039D0001202934231D1082851D8FCF783FB0C50D6
:1039E00018501550505019002C4A914247D180224E
:1039F0001202934238D1FFF733FB031E08D1002097
:103A00000023A366E36670BDFFF780FAF5E7244B59
:103A1000616858004B08C018FCF76EFB0200214B90
:103A2000103A9A422BD80F23020000079A4393B210
:103A3000400F22680343D360E1E708281FD8FCF752
:103A400051FB131E051E181E1E1E1B001448616824
:103A50004B081818FCF750FB0200124B103A9A4220
:103A60000DD82368D860CAE7FFF7FAFA0028C6D055
:103A7000EDE7FFF74BFAF9E780200002E7E70120C6
:103A8000BEE7C046F369FFFFFFCFFFFFFFF4FFFF74
:103A90000038014000100240ED650008004400407D
:103AA00000127A00EFFF0000436A30B5DA0706D54E
:103AB0000168284C4A682240846A22434A609A0777
:103AC00006D50168244C4A682240C46A22434A60F1
:103AD0005A0706D50168214C4A682240046B2243EC
:103AE0004A601A0706D501681D4C4A682240446B9B
:103AF00022434A60DA0606D501681A4C8A682240D9
:103B0000846B22438A609A0606D50168164C8A683F
:103B10002240C46B22438A605A0610D50168134DB7
:103B20004A68046C2A4022434A608022520394422D
:103B300005D14A680E4C2240446C22434A601B0661
:103B400006D502680B4953680B40816C0B435360E8
:103B500030BDC046FFFFFDFFFFFFFEFFFFFFFBFF85
:103B6000FF7FFFFFFFEFFFFFFFDFFFFFFFFFEFFF25
:103B7000FFFF9FFFFFFFF7FFF7B504000D001700E1
:103B800000932268D3692B405B1B59424B41BB42D7
:103B900001D0002020E0089B0133F3D0FEF7B2FDF6
:103BA000009BC01A089B984227D8002B25D0236879
:103BB0001A685207E5D5DA690826110031400191EB
:103BC00032420AD020001E62FFF76EFBA319DE67A7
:103BD0000023012078342370FEBD8022D9691201B0
:103BE0001142CED01A622000FFF75EFB2300202294
:103BF0000833DA67019B783423700320ECE7000078
:103C0000030073B5002504000833DD67FEF77AFD75
:103C1000236806001B681B071DD58021264B2A0040
:103C20000093890303002000FFF7A6FFA84212D0EB
:103C3000EFF31081012383F310888020226813683A
:103C40008343136081F310882023E367032000235C
:103C50007834237076BD250008CD1B685B0723D51B
:103C60008021154B0022009320003300C903FFF789
:103C700083FF002818D0EFF31080012282F3108810
:103C800021680E4E0B6833400B6080F31088EFF311
:103C9000108082F3108821688B6893438B6080F3D7
:103CA00010882023EB67D1E720230020E367EB6730
:103CB00020666066CBE7C046FFFFFF01DFFEFFFF27
:103CC00010B5041E01D1012010BDC36F002B04D11B
:103CD000020078321370FFF75EFB24230121226873
:103CE000E367136820008B431360FFF747FE01284A
:103CF000E9D0636A002B02D02000FFF7D5FE2368CD
:103D000007495A6820000A4008215A609A688A4385
:103D10009A60012219680A431A60FFF771FFD3E71E
:103D2000FFF7FFFF10B5041E01D1012010BDC36FC6
:103D3000002B04D1020078321370FFF72CFB2423F0
:103D400001212268E367136820008B431360FFF7AB
:103D500015FE0128E9D0636A002B02D02000FFF78E
:103D6000A3FE236807495A6820000A405A600822C7
:103D700099680A439A60012219680A431A60FFF79A
:103D80003FFFD3E7FFF7FFFF0300583310B541654E
:103D90001A805A80802100238268836649018A4202
:103DA00038D103695A1E9341FF225B429343214A53
:103DB0009B1802005C321380030000220833DA678C
:103DC000031D2232DA67EFF31081012383F3108899
:103DD000026894682343936081F31088802184688B
:103DE0000269154B49018C4202D1002A00D1134BC4
:103DF00083660123002A15D0EFF3108183F3108826
:103E0000026820331068FF330343136081F3108886
:103E1000002010BD002ACCD102697F23002AC8D11E
:103E20008033C6E7EFF3108183F310880268202304
:103E30001068E9E7FF0100002D370008013800088D
:103E40000300043070B5C46F0220202C25D1013846
:103E5000002922D0002A20D080209C684001844282
:103E600005D11869002802D10130014215D1002086
:103E700018661868406800020CD5EFF31085012021
:103E800080F3108880201C68C004266830432060BE
:103E900085F310881800FFF777FF70BD7FB500230A
:103EA000042810D81B4B80215A69FCF71BF9030F1B
:103EB00018212A0089020A435A615B690B40019369
:103EC000019B9023DB05180007B000BDC9020A431F
:103ED0005A615B690B400293029B0F4BF3E70903A6
:103EE0000A435A615B690B400393039B0B4BEAE760
:103EF00049030A435A615B690B400493049B084BD6
:103F0000E1E7C9030A435A615B690B400593059BCE
:103F1000044BD8E7001002400004004800080048A5
:103F2000000C00480014004810B5FEF7EBFB10BD74
:103F3000704710B5FEF7DAFBFEF759FCFFF7F8FF04
:103F400010BD704780210E4B4905DA6984B00A43E1
:103F5000DA61DA690A4001210192019A9A690A43F9
:103F60009A619A690A400292029A5A693F310A4359
:103F70005A615B690B400393039B04B07047C046D2
:103F80000010024010B5FFF7DDFFFEF79FFBFFF7C3
:103F9000D8FF00F025FD0248FEF72EFC10BDC046FC
:103FA0002C000020431C04D100207047834204D021
:103FB0000C310B685A1CF9D1F6E70120F5E7000037
:103FC000F7B506000C00431C00D1FEE70F210200EC
:103FD000334B0A40000992000840D558FFF75EFFB6
:103FE00029000322030069434A438068D7431043F2
:103FF00098600720204003282CD8FCF773F8422C47
:1040000002366004420E01924A009446019A7F2AC9
:104010000ED0360711D50F265A6A10002A0A5243CD
:1040200052435643B04306000198424316435E6232
:1040300060461A683A40024310E01A6A0F261000E0
:104040000A004A435643B0430600019842431643D0
:104050001E62EDE7FEE71A683A400A431A6022073B
:1040600012D55A682A435A6002E0186802431A605F
:10407000A406A40F012C0AD0022C0DD0DA683A4015
:1040800008E01A683A40F2E75A68AA43EBE7DA68B0
:104090003A400A43DA60F7BDDA6849003A40F8E787
:1040A000F065000810B5431C07D110BD834203D151
:1040B0008968FFF785FFF8E70C310B685A1CF5D1CA
:1040C000FEE70B685A1C01D1002002E0834201D1B7
:1040D000486870470C31F4E7002310B5421C02D049
:1040E000FFF7EFFF0300180010BD4B68002B02D153
:1040F0000120404202E0834201D1086870470C3140
:10410000F3E710B5002802D0FFF7EFFF10BD012044
:104110004042FBE7030008008B4205D0002B03D090
:104120004242504140421840704700000121114B6B
:1041300011481A680A431A605A6802405A601A689D
:104140000E4802401A601A680D4802401A605A6808
:104150000C4802400F205A60DA6A8243DA621A6B16
:10416000094802401A635A6B8A435A63BF221204F9
:104170009A607047001002400CB8FF08FFFFF6FE7F
:10418000FFFFFBFFFFFFC0FFECFEFFFF043870479F
:104190000368314A88B093420BD180212F4B09012B
:1041A0009A690A439A619B690B400193019B08B08D
:1041B00070472B4A934209D10221284BDA690A43FE
:1041C000DA61DB690B400293029BF0E7254A9342D8
:1041D00009D11021214BDA690A43DA61DB690B400E
:1041E0000393039BE3E7204A93420AD180211B4BB0
:1041F0004900DA690A43DA61DB690B400493049BE6
:10420000D5E71A4A93420AD18021144B49029A6990
:104210000A439A619B690B400593059BC7E7144AC3
:1042200093420AD180210D4B89029A690A439A610F
:104230009B690B400693069BB9E70E4A9342B6D1A1
:104240008021064BC9029A690A439A619B690B4017
:104250000793079BABE7C046002C014000100240CB
:1042600000040040001000400020004000400140D9
:10427000004401400048014003681B4A934205D1B5
:104280001A4A1B4993690B40936107E0194A93420C
:1042900005D10221154AD3698B43D3617047164A71
:1042A000934203D1114A1021D369F5E7134A93428F
:1042B00004D10E4A1249D3690B40EEE7114A9342EA
:1042C00003D10A4A10499369DDE7104A934203D1AA
:1042D000064A0F499369D6E70E4A9342DED1034A54
:1042E0000D499369CFE7C046002C01400010024001
:1042F000FFF7FFFF000400400010004000200040D6
:10430000FFFEFFFF00400140FFFFFEFF00440140B1
:10431000FFFFFDFF00480140FFFFFBFF0300421CC1
:104320001BD0124A90421BD00BD8114A904219D090
:10433000104A132093420FD00F4A033893420BD0F8
:10434000FEE70E4A90420FD00D4A1620934203D04A
:104350000C4A02389342F3D170470E204042FBE7EB
:104360000D20F9E71120F7E71520F5E7002C0140B3
:1043700000100040002000400004004000440140C4
:1043800000480140004001400300421C1BD0124A7B
:1043900090421BD00BD8114A904219D0104A1320DA
:1043A00093420FD00F4A033893420BD0FEE70E4AD8
:1043B00090420FD00D4A1620934203D00C4A023887
:1043C0009342F3D170470E204042FBE70E20F9E7FD
:1043D0001120F7E71520F5E7002C01400010004000
:1043E000002000400004004000440140004801401B
:1043F00000400140F8B50400FFF7CAFE2068FFF74F
:104400008DFFE26CA16CFEF783F92068FFF786FF51
:10441000FEF7A8F927683800FFF7B6FF0500380057
:10442000FFF77CFF854209D02800E26CA16CFEF703
:104430006FF92068FFF7A8FFFEF794F9F8BD0000B8
:10444000F0B589B005930300040094331868039114
:1044500027005E490492FFF73FFE98375C4905004C
:1044600026003868FFF738FE9C365A4900903068BD
:10447000FFF732FE2300A033019057491868FFF779
:104480002BFE0290002D00D184E03B68013302D066
:10449000009B002B7ED03368013302D0019B002BA0
:1044A00078D02300A0331B68013302D0029B002B7D
:1044B00070D000992800FFF72DFE01992060FFF7CA
:1044C00029FE02992060FFF725FE2060002861D0B8
:1044D000424B984260D18022414BD201D968414879
:1044E0001143D960D9680140D96099691143996134
:1044F0009B6913401B220693069B2300A4331A805A
:104500002300943318683149FFF7CCFD009B002B42
:1045100005D0230098332E491868FFF7C3FD002506
:10452000019BAB4207D023009C332A491868FFF750
:10453000B9FD0135FF35029B002B08D080239B007D
:104540001D432300A03324491868FFF7ABFD220068
:10455000A5321278244B261D9200D65023680022E3
:104560006360039BA420A360049BE561E3600E9B52
:1045700022622361059BA26263610C236262A361D4
:1045800020560121FEF7C4F8009B3000002B1AD101
:10459000FFF7C8FB09B0F0BD144B9842B0D18022A0
:1045A0000F4B9202196912481143196119690140B0
:1045B0001961D9691143D961DB6913408E220793D0
:1045C000079B520099E7FFF77BFBE3E7CC66000807
:1045D000906600086C6600084866000800380140D4
:1045E00000100240FFBFFFFF08070020004400400A
:1045F000FFFFFDFF13B5002803D0049C0094FFF7D4
:104600001FFF13BD10B5A5300278064B9200D0589D
:10461000FFF7AEF922231840223843425841C0B276
:1046200010BDC0460807002010B5A5300278064B23
:104630009200D058FFF79CF92123184021384342BB
:104640005841C0B210BDC0460807002070B5040034
:104650000E00002802D10120404270BDFFF7D2FFBA
:10466000051EF8D12100A6310B78A53433702078CF
:10467000034B80000122C058FFF7E2FB2800ECE763
:104680000807002070B504000D0000281AD0FFF7BD
:10469000B9FF002816D123008C331D6025000020AF
:1046A000A4352856FEF76AF82100A5342078064B79
:1046B00080000122C058A631FFF7C2FB0020285617
:1046C000FEF750F870BDC0460807002070B5040022
:1046D000150000281BD0030006000020903319604D
:1046E000A4363056FEF74AF823002100B633AC3129
:1046F0001B880968A5342078C918054B8000C0586C
:10470000AAB2FEF749FE00203056FEF72BF870BD26
:104710000807002010B500280BD0030098331B6851
:10472000013306D1A5300278024B9200D058FFF732
:10473000D1F810BD0807002010B500280BD00300E9
:1047400098331B68013306D1A5300278024B9200E2
:10475000D058FFF7E6F810BD08070020030010B599
:1047600088331B680438984710BD030010B58C339C
:104770001B680438984710BD0122036810B5D96939
:1047800004000438114201D01A620BE00222D969F8
:104790001142F9D10422D9691142F5D10822D9690F
:1047A0001142F1D1FFF72EFF002805D1210001228F
:1047B0002000A231FFF744FB10BD000010B51B2004
:1047C000FEF706F8024B1868FEF736FE10BDC0462D
:1047D000080700201C2010B5FDF7FAFF034B5868AE
:1047E000002801D0FEF728FE10BDC04608070020B3
:1047F000F7B5134B060019000193FFF76DFCFDF7A9
:10480000DDFD104F8400E359002B0DD1B020FDF7E2
:1048100030FF019905003000FFF75EFC0100280021
:10482000FDF7CCFEE3591D603B591C68002C06D0F7
:104830002000FDF7F9FDB0212000FDF71EFFF7BDB8
:1048400008670008C806002010B50C2200210400EB
:1048500001F040FA0023E36010BD0000002310B512
:1048600001280BD114225A43064B101DC018816831
:10487000002902D09B181B69984710BD01334008DE
:10488000DBB2EDE71007002010B50120FEF734F988
:104890000220FEF731F910BD10B50420FEF72CF907
:1048A0000820FEF729F910BD70B50C241025A8B218
:1048B000013CFEF721F96D00002CF8D170BD00001D
:1048C000F8B505252E4F2F4C38002570FFF7BCFF9B
:1048D0002D4E25753000FFF7B7FF23000135283333
:1048E0002A481D70FFF7B0FF230029483C331D7094
:1048F000FFF7AAFF23000135503326481D706037AB
:10490000FFF7A2FF24483D706036FFF79DFF234864
:104910003570FFF799FF230021488C331D70FFF796
:1049200093FF23001F48A0331D70FFF78DFF230066
:104930001D48B4331D70FFF787FF23001B48C833A1
:104940001D70FFF781FF23001948DC331D70FFF74E
:104950007BFF23002600F03316481D70FF36FFF75B
:1049600073FF15487571FFF76FFF14487576FFF7F1
:104970006BFF962312485B00E554FFF765FFF8BD17
:104980001407002010070020280700203C07002003
:104990005007002064070020780700208C070020C3
:1049A000A0070020B4070020C8070020DC07002073
:1049B000F007002004080020180800202C08002020
:1049C0004008002010B5044C143C201DFDF7ECFC01
:1049D000024B9C42F8D110BD500800201007002067
:1049E00070B5102690B02C22002105A801F072F9B4
:1049F00032000021684601F06DF9A0230224012550
:104A00009B0304A80494079508960C940E93FEF754
:104A10007FF8002800D0FEE70723029003902900CA
:104A2000684600930194FEF797FA002800D0FEE74D
:104A300010B070BD0D488546FFF778FB0C480D4956
:104A40000D4A002302E0D458C4500433C4188C42E9
:104A5000F9D30A4A0A4C002301E013600432A2424F
:104A6000FBD301F081F900F0F1FEFEE70020002009
:104A7000000000209C0000209C6A0008A00000208C
:104A8000080B0020FEE70000F7B5C3B20400019157
:104A9000262B29D8E02226499B005C58D2000240F0
:104AA0001443631C37D00F2625093540214FAD0034
:104AB000EB592640F340DB070DD520001E49FFF7D8
:104AC00071FA002802D02000FFF792FE0122B240C6
:104AD0007B5993437B51019B052B27D81800FBF78B
:104AE00001FB16211B1D1F23C0220240C02A12D128
:104AF000C92B10D83F23114903409B005B58E0218C
:104B00000B4A9B009B58C9000C401C43C9E700217D
:104B10002000FFF755FAF7BD1021F9E72021F7E74C
:104B20000321F5E70121F3E70921F1E7FEE7C0469C
:104B3000A4680008AC090020086700087C68000829
:104B4000C3B210B5262B17D8E022184C9B00D20018
:104B5000024018591043030600221B0F042B02D8F1
:104B6000134A9B009A580F24124B20408000C358D0
:104B7000002918D0936110BDC0220240C02A0ED176
:104B8000C92B0CD83F230C4C03409B001B59E0243D
:104B9000064A9B009B58E40020401843DBE70120B5
:104BA00000224042DFE79362E5E7C046A4680008C0
:104BB00018000020F06500087C680008C3B2184A9D
:104BC000262B0DD8E0219B00C9000140D058084396
:104BD0000F2103090B40042B14D900231B69FFDEAE
:104BE000C0210140C029F8D1C92BF6D83F230D4977
:104BF00003409B005B58E0219B00D358C90008404C
:104C00001843E5E7084A9B009A580840074B800084
:104C1000C35810691840C01A434258417047C046F3
:104C2000A46800087C68000818000020F0650008EF
:104C300010B5FFF779F910BD70B5041E09D0FFF764
:104C400073F9050000F010FEFFF76EF9401BA0425B
:104C5000F8D370BD7047A423A2215B00C35A49005A
:104C6000405A4033181A3F2318407047A4235B0072
:104C7000C25A043BC35A9A4203D0FC30026CD05C47
:104C8000704701204042FBE7A323A5225B005200AE
:104C9000C35C805AC0B2834202D3C01A3F3070470F
:104CA000C01A0138FBE713B56B460268D9710733A8
:104CB000546819000122A04716BD37B56B46DD1DAB
:104CC00029000400FFF7C2FC002810D122003F2178
:104CD000B432138801330B402100B03109888B4274
:104CE00005D0A834118820682D784554138037BD2D
:104CF0000300010070B5B633B8311A880C68121978
:104D00003F2422401A800200B23212881D880024FB
:104D1000AA4217D01D8840321C880B4B521BA4B2EC
:104D20001A4004D54023013A5B421A430132402322
:104D30001B1B9A4200D91A000A6001240349FFF79D
:104D4000C5FC6442200070BD3F000080F14C0008AB
:104D5000F0B5036885B09B68019103920400984701
:104D6000A32340275B00E35A0500FF1A01232374A5
:104D700023009433029368331B6B013309D1A823BA
:104D80005B00E25C002A04D000220298E254FFF7A4
:104D9000C1FC236820009B6898470028F9D0039E37
:104DA000BE4226D8AE4224D8A32327005B00E35A94
:104DB000FC37786C9A19C018402A33D83200019910
:104DC00001F000F83500A3223F215200A35A0298B7
:104DD0009B190B40A352FFF727FC002806D1FC3497
:104DE0002A00174902982565FFF770FC039805B063
:104DF000F0BDBD4200D93D0023682A005B680199DF
:104E000020009847019B20005B1901932368761BC3
:104E10009B689847A3235B00E75A073BFF3B0500CD
:104E2000DF1BBDE74025ED1A2A00019900F0CAFFFB
:104E3000019B786C721B591900F0C4FFC3E7C04690
:104E4000F14C0008F7B5037C04000D00002B16D0D0
:104E5000FDF758FCA327A52601907F007600E25BB2
:104E6000A35B9A420BD0002DFAD0FDF74BFC019BBF
:104E7000C01A8542F3D8A323A25B5B00E252F7BDC0
:104E800010B5914201D1012149420400FC34636311
:104E9000029BE262A3630300A42211332364002374
:104EA000520021638352020051326264A5225200F3
:104EB000A364835210BD0000F7B5050000206860B0
:104EC000FA208000A8604448089C2860C8B22628C0
:104ED0002AD8E027414E8000FF000F408159394316
:104EE000D0B2262836D8E0273C4E8000FF0017407D
:104EF00082593A43D8B2262842D8E027374E80005C
:104F0000FF001F4083593B43E0B226284ED8E027DC
:104F1000324E8000FF00274084593C432800009413
:104F2000FFF7AEFF2800FEBDC0260E40C02E0ED1FA
:104F3000C9280CD83F202A4F08408000C059E027DC
:104F4000264E80008059FF0039400143C8E7012107
:104F50004942C5E7C0261640C02E0ED1C9280CD83C
:104F60003F201F4F10408000C059E0271B4E80009B
:104F70008059FF003A400243BCE701225242B9E7A0
:104F8000C0261E40C02E0ED1C9280CD83F20144F79
:104F900018408000C059E027104E80008059FF0063
:104FA0003B400343B0E701235B42ADE7C026264008
:104FB000C02E0ED1C9280CD83F20094F20408000B8
:104FC000C059E027054E80008059FF003C40044353
:104FD000A4E701246442A1E750690008A46800081E
:104FE0007C680008CBB210B5262B09D8E0220F4C04
:104FF0009B00D2000A4019591143FC30016310BDD7
:10500000C0220A40C02A0ED1C92B0CD83F23084C1D
:105010000B409B001B59E024044A9B009B58E40072
:1050200021401943E9E701214942E6E7A468000865
:105030007C680008CBB210B5262B09D8E0220F4CB3
:105040009B00D2000A4019591143FC30C16210BDC7
:10505000C0220A40C02A0ED1C92B0CD83F23084CCD
:105060000B409B001B59E024044A9B009B58E40022
:1050700021401943E9E701214942E6E7A468000815
:105080007C6800080023F0B54360FA239B0083602E
:105090001E4B050003600123FC355B422B631C4B58
:1050A00085B004000E000392984218D1C32120005D
:1050B000FFF798FFC2212000FFF7BCFF0123039AEE
:1050C0005B42012A00D12B63009301232000EA6A8E
:1050D000296B5B42FFF7D4FE200005B0F0BD0D4AFE
:1050E0000D4F92680D4B92003900D058FEF7F4FF37
:1050F0008642DBD00A493000FFF703F83900286305
:105100003000FEF7FEFFE862D8E7C04650690008AD
:10511000500800207C680008CC660008A4680008DD
:10512000906600080300FC331B6B10B504000133CC
:105130000ED1036800215B6A9847A8235B00E25CFC
:10514000002A05D120000132E2549430FFF7F4FA2E
:1051500010BD00000300FC3373B599655223FF3383
:10516000C2544B3BFF3B1340023BDBB21400050033
:105170003022042B03D92240302A0ED1FEE71548F5
:105180002240C05C302A0BD1C0230130DB0000225A
:1051900008280DD0092809D0F0E7A406EED4EDE7E1
:1051A0000023A206F3D580230130EFE780225201CD
:1051B0002E002407E40F9436640330000094FFF7B8
:1051C00019FA2800FFF7AEFF30000349FFF75AFA3B
:1051D00073BDC04640690008BB4C000810B5040010
:1051E000FFF7A0FFA423A2225B005200E15AA35ABA
:1051F000994208D02100FC31096CC85C3F21013381
:105200000B40A35210BD01204042FBE710B5002225
:1052100002480349FFF736FF10BDC0465008002082
:105220000044004070B505000C00081E07D0FAF7D6
:1052300051FF2B680200210028005B68984770BD71
:1052400010B5FFF7EFFF10BD10B503688A685B6803
:105250000968984710BD10B5FFF7E4FF10BD10B501
:1052600003681B68984710BD10B50249FFF7DAFFC5
:1052700010BDC0468F62000870B50400FFF7D2FF72
:1052800005002000FFF7F0FF401970BD70B5050064
:10529000FFF7DAFF04002800FFF7E6FF201870BDD3
:1052A00010B5FFF7E9FF10BDF0B58BB06B461400E9
:1052B000002205330600DA77012C00D80A2409AD54
:1052C0000F0021003800FAF717FF03006343FB1AB1
:1052D000DBB21A0037320100D2B2092B01D83033C9
:1052E000DAB2013D2A70BC42EAD929003000FFF74A
:1052F00099FF0BB0F0BD10B5002A04D10368C9B204
:105300001B68984710BDD2B2FFF7CEFFFAE710B581
:10531000FFF7F1FF10BD10B5FFF7EDFF10BD10B5A1
:105320000400FFF785FCE060236820005B69984774
:10533000002808DAFFF77CFCE368C01AA3689842EB
:10534000F2D30120404210BDF8B506000F00150051
:105350000024AC4201D12000F8BD3000FFF7DFFF90
:105360000028F8DB38550134F3E7F7B50F001600D5
:105370001D001C1E01900BD000240198FFF7CFFFE9
:10538000002805DBB84203D030550134A542F4D1E2
:105390002000FEBD70B50D000749040000F055F86F
:1053A0002800FFF7BCFF002801DA200070BDC1B261
:1053B000200000F001F9F3E79162000810B5040045
:1053C000006800F0F7FA200010BD10B50400006876
:1053D000002801D000F0EEFA00232360A360636090
:1053E00010BD70B504000D000068013100F098FB9D
:1053F000031E01D0012028C470BD036810B504004D
:10540000002B02D043688B4209D22000FFF7E9FF4E
:10541000002805D0A368002B01D122681370012059
:1054200010BD70B50E00110004001500FFF7E5FF78
:10543000002804D12000FFF7C8FF200070BD310014
:105440002068A56000F0B6FCF7E7002370B5040003
:105450000D00036043608360994207D00800FAF7AB
:1054600039FE290002002000FFF7DBFF200070BD9D
:1054700070B5050000680C000968002807D00029F5
:1054800003D06A68A3689A420BD200F093FA2368AB
:105490002B6063686B60A368AB600023236063606C
:1054A00003E000F087FCA368AB600023A36070BD3D
:1054B000002310B50400036043608360FFF7D8FF4A
:1054C000200010BD10B50B000400884205D009680B
:1054D000002904D09A68FFF7A4FF200010BDFFF751
:1054E00074FFFAE7002310B5040003604360836093
:1054F000FFF7E8FF200010BD10B50400884201D07E
:10550000FFF7B6FF200010BD70B504000D1E09D0D6
:105510000800FAF7DFFD290002002000FFF781FFF5
:10552000200070BDFFF751FFFAE710B5002304001B
:105530008AB023606360A360080001A900F0DBF972
:10554000200001A9FFF7E0FF20000AB010BD0023F2
:1055500010B50400036043608360FFF7D5FF2000AF
:1055600010BD70B504000E1E856801D1002070BD0D
:10557000002A0CD0AD182900FFF73FFF0028F5D016
:105580002068A3683100C01800F014FCA560012059
:10559000EDE710B58A680968FFF7E3FF10BD70B545
:1055A00005000C00081E06D0FAF794FD2100020049
:1055B0002800FFF7D6FF70BD07B56B4619716A4624
:1055C000002301A953710122FFF7CBFF0EBD1FB5C8
:1055D00004000A220800694600F0C7F96846FAF795
:1055E00079FD694602002000FFF7BBFF04B010BD43
:1055F00070B504000E1E01D1002070BD0800FAF73E
:1056000069FD00280ED0A568451929002000FFF784
:10561000F4FE0028F0D02068A3683100C01800F024
:10562000C9FBA5600120E8E7030000680A0010B587
:105630000968002805D1081E02D09068002807D10B
:1056400010BD002909D19B68002B04D11800F7E791
:1056500008784042F4E70078F2E7FAF731FDEFE727
:1056600010B58A6884680023944204D1FFF7DCFFF8
:1056700043425841C3B2180010BD836810B5002BD7
:1056800007D10120002903D0087843425841C0B215
:1056900010BD0068002901D10078F6E7FAF710FD87
:1056A000F3E7000083688B4203D903685818002B86
:1056B00002D10023014803707047C046A8090020AA
:1056C0008268030000208A4203D91B68181E00D09C
:1056D000585C704710B5FFF7F3FF10BD70B50D00B3
:1056E000002A06D0002904D084689C4202D80023F6
:1056F0000B7070BD013AE41A944200D9140001689D
:105700002200C918280000F0EDFA00232B55F0E71D
:10571000836810B5934208D904680968A01800F09E
:10572000F5FA002801D0001B10BD01204042FBE724
:1057300010B50022FFF7ECFF10BDF7B515008A6821
:105740000E00002A1ED08368002B1BD09A4219D865
:10575000AB4200D85D1E0768012438007B19644203
:105760000193019B984201D92000FEBD316800F0F1
:10577000CDFA0028F8D0C31BAB4200D923001C008F
:105780000130EEE701246442EEE710B582688B68D1
:10579000D21AFFF7D2FF10BDF7B50F0015001E009B
:1057A00001909A4201D91D0016000C490198FFF79B
:1057B0004CFEBC68AC420ED9B44200D934003B6800
:1057C00001981E5D1A190023137039684919FFF7F3
:1057D0009BFE3B681E550198FEBDC04691620008C5
:1057E000F8B507680500002F03D084683E00002C40
:1057F00001D1F8BD0136307800F064FA0028F9D103
:10580000013C3C19207800F05DFA00280DD10134EC
:10581000A21BAA60B74203D23100380000F0D2FACE
:1058200000212A68AB68D154E3E7A642EFD8013CD7
:10583000E8E70368002010B5834202D0180000F0AA
:10584000A9F810BD10B500F00BF810BD10B500E0C0
:1058500000BFFBF7D3FBFCF729FC00F08BF8FAE75D
:1058600010B5FEF78FFB10BD7047F0B503000C00BC
:1058700017008DB0002920D0023A222A39D80A2FE9
:105880001ED100281CDA0122434203AE35000192EA
:10589000002B17D1AE4225D0019B2200002B02D055
:1058A0002D23621C237011002B00B3421CD8002151
:1058B0000B00AE4200D8AB1BD15420000DB0F0BDA0
:1058C0000022E2E718003900FAF79CFC0A00573280
:1058D0000B00D2B2092901D83033DAB22A700300A2
:1058E0000135D5E71800F7E7013B1878087001315A
:1058F000DBE70024E1E710B5FFF7B7FF10BDF0B517
:1059000003000C0017008BB0002912D0023A222AA3
:1059100029D801AE3500002B0ED1AE421CD022009A
:105920002B00B3421AD800221300AE4200D8AB1BA2
:10593000E25420000BB0F0BD18003900FAF762FC09
:105940000A0057320B00D2B2092901D83033DAB23B
:105950002A7003000135DEE71800F7E7013B1978EC
:1059600011700132DDE70024E3E710B5FFF7C7FF50
:1059700010BD0000054B10B5002B06D00448FFF702
:105980006AF9002801D000E000BF10BD000000004F
:105990005008002010B50A22002100F087F910BD40
:1059A00010B5034B0100186800F030F810BDC04678
:1059B0004C00002010B5034B0100186800F00CFAF1
:1059C00010BDC0464C00002070B50F4E0D00316870
:1059D0000400002902D100F0AFF930602900200056
:1059E00000F0AAF9431C03D101256D42280070BDC7
:1059F0000323C51C9D43A842F8D0291A200000F0BB
:105A00009BF90130F2D1EFE7C00900200323F7B57D
:105A1000CD1C9D43083506000C2D34D20C25A9421F
:105A200033D8300000F06CF8344F3B681C00002C79
:105A30002FD129003000FFF7C7FF0400431C58D1C5
:105A40003C682100002949D1002C4CD0236830004B
:105A5000E318019300F070F9019B834243D123685E
:105A60003000ED1A2900FFF7AFFF01303BD023686B
:105A70005B1923603B68002B3DD05A68A24230D1AD
:105A800000225A6012E0002DC9DA0C233360002096
:105A9000FEBD2168491B1ED40B2917D96219256048
:105AA000A34211D13A60636811605360300000F086
:105AB0002FF8200007220B30231D9043C21A984272
:105AC000E6D01B1AA350E3E75A60ECE76268A342F2
:105AD000D7D13A60EAE723006468A8E70C00496878
