:020000040800F2
:100000000020002089550008D9550008D95500085E
:1000100000000000000000000000000000000000E0
:10002000000000000000000000000000D95500089A
:100030000000000000000000D9550008874A0008B1
:10004000D955000800000000D9550008D95500080E
:10005000D9550008DD530008ED530008FD53000892
:1000600000000000D9550008D9550008D9550008EE
:10007000D95500084D300008653000080000000028
:100080006D30000885300008000000009D30000839
:10009000B5300008CD300008E5300008D95500081B
:1000A000D9550008D9550008D95500081153000842
:1000B00029530008000000000000000000000000BC
:1000C00002780B78002A03D0013001319A42F7D030
:1000D000D01A70470023C25C0133002AFBD1581E9E
:1000E0007047000002B4714649084900095C4900A4
:1000F0008E4402BC7047C046002243088B4274D332
:1001000003098B425FD3030A8B4244D3030B8B4218
:1001100028D3030C8B420DD3FF22090212BA030C21
:100120008B4202D31212090265D0030B8B4219D302
:1001300000E0090AC30B8B4201D3CB03C01A524122
:10014000830B8B4201D38B03C01A5241430B8B426A
:1001500001D34B03C01A5241030B8B4201D30B0353
:10016000C01A5241C30A8B4201D3CB02C01A52417A
:10017000830A8B4201D38B02C01A5241430A8B423D
:1001800001D34B02C01A5241030A8B4201D30B0226
:10019000C01A5241CDD2C3098B4201D3CB01C01A40
:1001A000524183098B4201D38B01C01A524143094A
:1001B0008B4201D34B01C01A524103098B4201D338
:1001C0000B01C01A5241C3088B4201D3CB00C01AA5
:1001D000524183088B4201D38B00C01A524143081D
:1001E0008B4201D34B00C01A5241411A00D2014642
:1001F000524110467047FFE701B5002000F006F8B5
:1002000002BDC0460029F7D076E770477047C04668
:10021000D0400B00D1409C46203AD3401843524274
:10022000634693401843704710B5064C2378002B63
:1002300007D1054B002B02D0044800E000BF01238A
:10024000237010BDA000002000000000346C0008E6
:10025000044B10B5002B03D00349044800E000BF55
:1002600010BDC04600000000A4000020346C00084F
:100270000300F0B5083387B0164904001800019355
:1002800005F024FF05F07EFA002702000023124E3D
:10029000B6185F41206803681B699847051E05D1A1
:1002A00005F070FABD42F5D1B042F3D92068036879
:1002B0001B69984700280AD0216803A805F04CFE66
:1002C000019803A905F0FAFE03A805F059FE07B04E
:1002D000F0BDC0465B7100088813000030B5040013
:1002E0000D0085B0012902D90020042920D111492F
:1002F000206805F04FFD0A222900206805F0C4FDA2
:100300000D49206805F046FD2000FFF7B1FF0B49BD
:1003100001A805F0FEFE200001A9083005F0EAFF63
:1003200004000134631E9C4101A805F029FEE0B2DF
:1003300005B030BD536C00081C6D0008506C0008FF
:1003400010B504008CB02449006805F023FD20009E
:10035000FFF78EFF08342149684605F0DAFE69464A
:10036000200005F0C7FF013006D00124684605F0E3
:1003700007FE20000CB010BD194903A805F0C9FE06
:10038000200003A905F0B6FF013004D0012403A822
:1003900005F0F6FDEAE7134906A805F0BAFE2000CD
:1003A00006A905F0A7FF013014D10F4909A805F0EF
:1003B000B0FE200009A905F09DFF013007D109A872
:1003C00005F0DEFD002406A805F0DAFDDFE709A848
:1003D00005F0D6FD0124F6E75C6C0008666C0008A9
:1003E000716C00087C6C0008876C000870B50C000C
:1003F00086B01E490600206805F0CCFC2000FFF7FF
:1004000037FF08341A4903A805F083FE200003A92A
:1004100005F070FF050003A805F0B2FD013506D117
:100420003000144905F0F3FD300006B070BD684699
:10043000114905F06EFE6946200005F05BFF0F498B
:10044000050003A805F065FE03A9200005F07FFF65
:1004500021000300AA1C300005F080FF03A805F06E
:100460008FFD684605F08CFDDEE7C0469E6C0008F7
:100470004A6E0008A86C0008186D0008196D000885
:100480001FB504000C49006805F084FC2000FFF74C
:10049000EFFE0A4901A805F03CFE200001A9083042
:1004A00005F028FF04000134631E9C4101A805F0FB
:1004B00067FDE0B204B010BDB66C0008506C0008D7
:1004C00010B504000121406905F088F80121606938
:1004D00005F0E0F8237F002B03D00121A06905F08F
:1004E0007DF82000FF21083005F069FD2000FFF7AE
:1004F000C7FF10BD30B50C0087B005001849206853
:1005000005F048FC2000FFF7B3FE0834154903A8A6
:1005100005F0FFFD03A9200005F0ECFE0822030012
:100520002100280005F01AFF03A805F029FD280086
:1005300005F0CAFF68460C4905F069FD0B4903A8A0
:1005400005F065FD694603AA280005F02BFF03A806
:1005500005F016FD684605F013FD280007B030BD14
:10056000BC6C0008506C0008C56C0008C26F000825
:1005700030B50C0087B005001849206805F00AFC6A
:100580002000FFF775FE0834154903A805F0C1FDEA
:1005900003A9200005F0AEFE082203002100280078
:1005A00005F0DCFE03A805F0EBFC280005F08CFF4D
:1005B00068460C4905F02BFD0B4903A805F027FD03
:1005C000694603AA280005F0EDFE03A805F0D8FC53
:1005D000684605F0D5FC280007B030BDC76C0008A0
:1005E000506C0008C56C0008C26F000870B50C00A4
:1005F00086B006001549206805F0CCFB2000FFF707
:1006000037FE08346846124905F083FD694620002C
:1006100005F070FE0F49050003A805F07AFD03A957
:10062000200005F067FE210003006A1C300005F081
:1006300095FE03A805F0A4FC684605F0A1FC300077
:1006400005F042FF300006B070BDC046D06C000817
:1006500063710008506C000830B50C0085B00500CF
:100660000F49206805F096FB2000FFF701FE0834D3
:100670000C4901A805F04DFD01A9200005F03AFE46
:10068000082203002100280005F068FE01A805F0FB
:1006900077FC280005F018FF280005B030BDC046E3
:1006A000D96C0008506C00080300F0B5083389B01D
:1006B0000391040017491800029305F007FD05F0A7
:1006C00061F800270600206803681B699847051E2B
:1006D0000CD105F057F8039B01950093009A019BFC
:1006E00092197B419D42EED19042ECD9206803687B
:1006F0001B69984700280AD0216805A805F02CFC42
:10070000029805A905F0DAFC05A805F039FC09B046
:10071000F0BDC0465B71000870B50C00110005000B
:10072000206805F042FB0749206805F03EFB2000E9
:100730000549FFF7B9FF21002800083105F0B4FC96
:10074000280070BD1C6D00081027000070B5040063
:100750008AB01F49006805F01DFB20001D49FFF706
:10076000A3FF08341C4907A805F0D3FC07A9200003
:1007700005F0C0FD060007A805F002FC6325013660
:1007800023D0164901A805F0C4FC01A9200005F0FA
:10079000B1FD1349050004A805F0BBFC04A9200025
:1007A00005F0A8FDAA1D0300210007A805F0D6FD4D
:1007B00007A805F0B2FE050007A805F0E1FB04A8B4
:1007C00005F0DEFB01A805F0DBFB28000AB070BDD8
:1007D000E26C000888130000EA6C0008F06C000866
:1007E0004A6E000810B504008B6805F0B7FD2000C4
:1007F00010BD00001FB504000068002918D00D4985
:1008000005F0C8FA2000FFF733FD0B4901A805F0F9
:10081000FEFB200001A9083005F06CFD0400013446
:10082000631E9C4101A805F0ABFBE0B204B010BD13
:100830000249E5E7F76C0008506C0008026D0008FB
:10084000F0B504000F0016001D0085B019490068BE
:1008500005F0A0FA3900206805F0A7FA164F2068C5
:10086000390005F097FA3100206805F09EFA39004A
:10087000206805F08FFA2900206805F096FA0F49E4
:10088000206805F087FA2000FFF7F2FC0C4901A868
:1008900005F0BDFB200001A9083005F02BFD040088
:1008A0000134631E9C4101A805F06AFBE0B205B06B
:1008B000F0BDC0460D6D0008176D00081B6D0008E7
:1008C000506C00081FB504000C49006805F062FA7E
:1008D0002000FFF7CDFC0A4901A805F098FB200095
:1008E00001A9083005F006FD04000134631E9C4197
:1008F00001A805F045FBE0B204B010BD1E6D000874
:10090000506C000830B504000D0085B01049006837
:1009100005F040FA2900206805F047FA0D492068E3
:1009200005F038FA2000FFF7A3FC0B4901A805F0F9
:100930006EFB200001A9083005F0DCFC0400013446
:10094000631E9C4101A805F01BFBE0B205B030BD61
:100950002B6D00081B6D0008506C000810B50121BC
:100960000400FFF747FF002801D1002010BD09490E
:1009700020000B000A00FFF763FF0028F5D02000DD
:10098000FFF7A0FF0028F0D020000349FFF7BAFFCF
:10099000ECE7C046356D0008386D00087FB50400EF
:1009A0000D0001A81E49160005F031FB1D49206805
:1009B00005F0F0F929002500206805F0F6F91A493C
:1009C000206805F0E7F908352000FFF751FC290001
:1009D00001A805F0C0FB3100206805F0E6F91349D5
:1009E000206805F0E2F92000FFF742FC290001A889
:1009F00005F0B1FB1A21206805F0DBF92000FFF7B4
:100A000037FC290001A805F0A6FB019B01245A42EE
:100A1000534101A85C4005F0B3FA200004B070BD5A
:100A20005B7100083C6D00081B6D00081C6D000820
:100A3000F0B504000D0008688DB04749002A00D1C8
:100A4000464905F0A7F928004549FFF72DFE454F17
:100A50002000390005F0DBFA434B0835190009A8DE
:100A6000019305F0D4FA09A9280005F043FC06001B
:100A700009A805F085FA0199013669D13B4909A811
:100A800005F0C5FA09A9280005F034FC060009A8FC
:100A900005F076FA364901365AD0290003A805F048
:100AA00003FB3900200005F011FB304909A805F0CF
:100AB000AEFA09A903A805F01DFC050009A805F078
:100AC0005FFA013505D103A805F05AFA20000DB0F0
:100AD000F0BD284906A805F09AFA06A903A805F072
:100AE00009FC03A9C21D09A8FFF77CFE09A903A8F8
:100AF00005F0E4FA09A805F043FA06A805F040FA63
:100B00001D4D09A8290005F082FA09A903A805F0DE
:100B1000F1FB0022030003A906A805F01FFC09A8A9
:100B200005F02EFA06A805F0CFFC3900200005F0EC
:100B300086FB1249002800D12900200005F011FB96
:100B4000200006A905F007FB06A805F019FAACE796
:100B5000200005F0BBFAB9E7466D00085E6D00089D
:100B6000307500005B710008A76D00086F6D00080C
:100B70008A6D0008766D00084A6E00087E6D0008D8
:100B8000F0B50C0017009FB0CB49050020681E008F
:100B900005F00BF90A223900206805F093F9C749DE
:100BA000206805F002F9C649002E00D1C549206829
:100BB00005F0FBF8C449206805F0F7F82000C349A8
:100BC000FFF772FDC249280005F021FA0834C14937
:100BD0001BA805F01CFA20001BA905F08BFB0600E2
:100BE0001BA805F0CDF9013600D150E1BA4E684698
:100BF000310005F00CFA310003A805F008FA3100C5
:100C000006A805F004FA310009A805F000FA310041
:100C10000CA805F0FCF9B14E6846310005F056FA13
:100C2000310003A805F052FAAD491BA805F0EFF911
:100C300020001BA905F05EFB06001BA805F0A0F92B
:100C4000013607D0A749684605F040FAA64903A82F
:100C500005F03CFAA5491BA805F0D9F920001BA90D
:100C600005F048FB06001BA805F08AF9013607D0FD
:100C70009C49684605F02AFA9D4903A805F026FA22
:100C80009C491BA805F0C3F920001BA905F032FB05
:100C900006001BA805F074F9013607D0964968468E
:100CA00005F014FA954903A805F010FA94491BA819
:100CB00005F0ADF920001BA905F01CFB06001BA8E0
:100CC00005F05EF9013607D08B49684605F0FEF95C
:100CD0008C4903A805F0FAF98B4E1BA8310005F0EA
:100CE00096F920001BA905F005FB2100C21C0FA8E6
:100CF000FFF778FD1BA805F043F9310018A805F0AF
:100D000086F918A90FA805F0F5FA002203000FA92B
:100D10001BA805F023FB1BA906A805F0CFF91BA80B
:100D200005F02EF918A805F02BF931001BA805F0E5
:100D30006EF91BA90FA805F00AFB0FA9C21C12A887
:100D4000FFF750FD1BA805F01BF9704C18A82100F7
:100D500005F05DF918A912A805F0CCFA00220300ED
:100D600012A91BA805F0FAFA1BA909A805F0A6F913
:100D70001BA805F005F918A805F002F9210015A82F
:100D800005F045F915A912A805F0B4FA6049040068
:100D900018A805F03CF918A912A805F0D8FA621CA9
:100DA000030012A91BA805F0D9FA1BA90CA805F08D
:100DB00085F91BA805F0E4F818A805F0E1F815A8D6
:100DC00005F0DEF80CA805F07FFB434918A805F0F4
:100DD0001EF900240E9BA3425CD84E491BA805F0C7
:100DE00016F91BA918A805F085FA04001BA805F040
:100DF000C7F801340BD004220CA91BA8FFF7F2FCA2
:100E00001BA90CA805F05AF91BA805F0B9F842492E
:100E1000280005F05BF96946280005F09CF93F4978
:100E2000280005F09EF903A9280005F094F93C4933
:100E3000280005F096F906A9280005F08CF9394933
:100E4000280005F08EF909A9280005F084F9364933
:100E5000280005F086F90CA9280005F07CF918A8EF
:100E600005F08EF812A805F08BF80FA805F088F8A9
:100E70000CA805F085F809A805F082F806A805F089
:100E80007FF803A805F07CF8684605F079F828009B
:100E90001FB0F0BD21000CA805F0E6F91022017882
:100EA0001BA805F024F91BA918A805F054F91BA8E4
:100EB00005F066F801348DE7916D00084A6E000870
:100EC000006F00086F6C00081C6D00083075000092
:100ED0009E6D0008AD6D00085B710008B46D0008E0
:100EE000BC6D0008C76D0008C06D0008D06D00081B
:100EF000D46D0008D96D0008E46D0008DD6D0008B0
:100F0000ED6D0008F16D0008176D0008196D0008FF
:100F1000506C0008F66D0008076E00080F6E0008A0
:100F2000186E0008226E00082D6E000870B58CB097
:100F3000002304006846FFF723FE214E09A8310074
:100F400005F0E7F8684609A905F0D4F9050009A8F5
:100F500005F016F8013509D120001A4905F057F8B7
:100F6000684605F00DF820000CB070BD310006A8F1
:100F700005F04DF806A9684605F0BCF905001249D0
:100F800009A805F044F809A9684605F0B3F92A0054
:100F900003006946083203A805F0E0F909A804F047
:100FA000EFFF06A804F0ECFF03A805F08DFA20007F
:100FB00003A905F05FF803A804F0E2FFD0E7C046FC
:100FC000196E0008376E0008226E0008F0B5150093
:100FD00087B004000F0003A8194905F018F828008D
:100FE00003A905F087F9060003A804F0C9FF01363C
:100FF00021D0144903A805F00AF803A9280005F038
:1010000079F92900821C6846FFF7ECFB03A804F07D
:10101000B7FF684605F058FA684605F07EFA0123E6
:10102000020039002000FFF7ABFD684604F0A8FF7E
:10103000200007B0F0BD2000034904F0E8FFF7E707
:10104000426E0008496E00084C6E000870B50C0036
:1010500086B0164903A804F0DAFF03A9200005F0C2
:1010600049F9050003A804F08BFF2E00013519D0C3
:101070000F4903A804F0CBFF03A9200005F03AF9BB
:101080002100821C6846FFF7ADFB03A804F078FF3F
:10109000684605F019FA684605F03FFA060068460A
:1010A00004F06EFF300006B070BDC046426E00080E
:1010B000496E000830B504000D0085B01149006884
:1010C00004F068FE0A222900206804F0FBFE0E49A5
:1010D000206804F05FFE2000FFF7CAF80B4901A862
:1010E00004F095FF200001A9083005F003F9040081
:1010F0000134631E9C4101A804F042FFE0B205B038
:1011000030BDC0465E6E00089A6D0008506C000845
:1011100070B504000D7801F079FE854203D02900F6
:10112000200001F0ADFE70BD70B504000D7801F037
:101130006DFE854203D02900200001F0A1FE70BDA4
:10114000F8B5642004F022FB194D1A49280004F078
:1011500051FE194E2800310004F027FE0F241F27EE
:101160000121380004F096FA00211E2004F092FAC2
:10117000322004F00BFB0021380004F08BFA01212F
:101180001E2004F087FA013C322004F0FFFAE4B29A
:1011900028000A4904F009FE002CE1D101211F209A
:1011A00004F078FA3100280004F024FEF8BDC046AF
:1011B000BC0000205B710008146F0008126F00086B
:1011C000F8B52A4C80272000294904F0FFFD0025AE
:1011D0001E26FF00FF21280001F052FE300004F01F
:1011E00097FA013541424141300004F053FABD42C3
:1011F000F0D1204E2000310004F0E8FD80272000CF
:101200001D4904F0C7FD0025FF00280001F0FEFD88
:10121000013501000A22200004F050FEBD42F4D145
:101220001649200004F0D2FD3100200004F0CEFD6C
:1012300001261F253100280004F02CFA31001E2061
:1012400004F028FA192004F0A1FA2800002104F083
:1012500021FA00211E2004F01DFA192004F096FA4C
:101260002000074904F0B2FDE4E7C046BC000020BE
:10127000676E0008876E00088D6E0008966E000885
:10128000A36E0008F7B506000F0000248D68AC427D
:1012900007DB6B46D91D0023A8190B70FFF738FF39
:1012A000F7BD2100380004F0DFFF01003019FFF71F
:1012B0002FFF0134EBE770B5050086B008000E0083
:1012C000002401F0A3FD002801D0142C0AD16A46A5
:1012D0000023043211002800135504F098FE280062
:1012E00006B070BDA01901F091FD6B46043318558E
:1012F0000134E8E7F0B50026604D6149280085B06B
:1013000004F048FD3700300001F080FD04000100CA
:101310000A222800FF3C63425C4104F0CFFD802399
:1013200001363F19DB009E42EDD1FA2628005549CF
:1013300004F04CFD7600B74223D92800524904F04E
:1013400045FD1E241F250021280004F0A3F90021DB
:101350001E2004F09FF9642004F018FA01212800EF
:1013600004F098F9013C01211E2004F093F9E4B245
:10137000642004F00BFA002CE5D100F0A5F805B0CC
:10138000F0BD4249280004F021FD414B186801F0EE
:101390003DFD421E90413F4B18703F4B186801F0D5
:1013A00035FD421E90413D4B0021187001A8FFF70A
:1013B00082FF3B4C01A9200004F080FE01A804F04C
:1013C000DFFD642101A8FFF776FF364F01A9380041
:1013D00004F074FE01A804F0D3FDC82101A8FFF7B2
:1013E0006AFF01A9304804F069FE01A804F0C8FDB5
:1013F000962101A84900FFF75EFF01A92B4804F0E0
:101400005DFE01A804F0BCFDC82101A84900FFF75A
:1014100052FF01A9264804F051FE01A804F0B0FDD6
:10142000310001A8FFF747FF01A9224804F046FE5A
:1014300001A804F0A5FD962101A88900FFF73BFF54
:1014400001A91D4804F03AFE01A804F099FD1B4EC5
:101450002000310004F0F3FE002800D18FE73100B6
:10146000380004F0ECFE002800D188E72800144979
:1014700004F0ACFC0022134B1A7080E7BC00002083
:101480008D6E0008966E0008BA6E0008D46E0008D3
:1014900004000020810200200000002080020020C3
:1014A00074020020680200205C020020500200202C
:1014B00044020020380200202C020020F46E0008B4
:1014C000026F000808000020F0B5394D8027280081
:1014D000384985B004F07AFC00241F26FF00002163
:1014E000200001F0CDFC300004F012F9013441423B
:1014F0004141300004F0CEF8BC42F0D12E4901A8A1
:1015000004F0D2FD01A90020FFF7BCFE01A804F001
:1015100037FD2A4901A804F0C7FD01A96420FFF79F
:10152000B1FE01A804F02CFD254901A804F0BCFD82
:1015300001A9C820FFF7A6FE01A804F021FD21495A
:1015400001A804F0B1FD962001A94000FFF79AFE22
:1015500001A804F015FD1C4901A804F0A5FDC82050
:1015600001A94000FFF78EFE01A804F009FD17490C
:1015700001A804F099FDFA2001A94000FFF782FEBE
:1015800001A804F0FDFC124901A804F08DFD96208D
:1015900001A98000FFF776FE01A804F0F1FC0D49D7
:1015A000280004F013FCFFF7A5FE05B0F0BDC0460F
:1015B000BC000020166F00087402002068020020A2
:1015C0005C0200205002002044020020380200206B
:1015D0002C020020876E00087FB50121C02003F097
:1015E000FDFF0121C12003F0F9FF01211F2003F0BD
:1015F000F5FF01211E2003F0F1FF0021C42003F0BC
:10160000EDFF0121C52003F0E9FF02211A2003F0BC
:10161000E5FFE121E04C06222000490204F044FBF2
:10162000E1210622DD48490204F03EFBFFF788FD78
:10163000DB49200004F0CAFBDA49200004F0C6FBB5
:10164000D949200004F0C2FBD849200004F0BEFBB9
:10165000642004F09BF81A2004F05AF8002801D105
:10166000FFF732FFFFF746FED14DC020297804F086
:1016700011F80F2004F08AF8CE4EC120317804F022
:1016800009F8CD49200004F090FB0A2229782000B7
:1016900004F0FAFBC94D2000290004F086FBC8497C
:1016A000200004F082FB0A223178200004F0F0FBD5
:1016B000C449200004F079FBC349200004F06EFB0C
:1016C0002900200004F071FBC049200004F066FBF3
:1016D0002900200004F069FBBD49200004F05EFBF6
:1016E0002900200004F061FBBA49200004F056FBF9
:1016F0002900200004F059FBB749200004F04EFBFC
:101700002900200004F051FBB449200004F046FBFE
:101710002900200004F049FBB149200004F060FBDF
:10172000B049200004F036FB0121C52003F0B2FFD0
:10173000AD4804F02BF80021C52003F0ABFFAB4906
:10174000200004F043FBFA20C00004F01FF8A84D6D
:101750002800FEF7B5FEA749200004F01BFB290076
:1017600001A8FEF7C7FE01A9200004F039FB01A87B
:1017700004F006FC1F2003F0CBFF414241411F2033
:1017800003F088FFFA20400004F000F89A49200096
:1017900004F000FB290001A8FEF7EAFE01A92000E1
:1017A00004F01EFB01A804F0EBFB1F2003F0B0FFC8
:1017B000414241411F2003F06DFFFA20400003F039
:1017C000E5FF8E49200004F0E5FA290001A8FEF7A4
:1017D0000DFF01A9200004F003FB01A804F0D0FBD9
:1017E0001F2003F095FF414241411F2003F052FFAB
:1017F000FA20400003F0CAFF8149200004F0CAFA31
:10180000290001A8FEF728FF01A9200004F0E8FA4A
:1018100001A804F0B5FB1F2003F07AFF41424141CB
:101820001F2003F037FFFA20400003F0AFFF754D93
:101830002800FEF745FE7449200004F0ABFA2800AA
:101840000121FEF74BFD0A220100200004F020FBDD
:101850001F2003F05DFF414241411F2003F01AFFAA
:10186000FA20400003F092FF6849200004F092FA49
:101870002800FEF765FD0A220100200004F008FBA5
:101880001F2003F045FF414241411F2003F002FFAA
:10189000FA20400003F07AFF5D49200004F07AFA54
:1018A0002800FEF753FF0A220100200004F00EFB7F
:1018B0001F2003F02DFF414241411F2003F0EAFEAB
:1018C000FA20400003F062FF5249200004F062FA5F
:1018D000290001A8FEF78AFD01A9200004F080FA82
:1018E00001A804F04DFB1F2003F012FF41424141CB
:1018F0001F2003F0CFFEFA20400003F047FF4649C7
:10190000200004F047FA2800FFF728F80A22010017
:10191000200004F0BDFA1F2003F0FAFE41424141CD
:101920001F2003F0B7FEAF20800003F02FFF3B49DC
:10193000200004F02FFA0122290001A8FFF778F80F
:1019400001A9200004F04CFA01A804F019FB1F20A3
:1019500003F0DEFE414241411F2003F09BFEAF2019
:10196000800003F013FF1F2003F0D2FE41424141EB
:101970001F2003F08FFE2900294A01A8FEF7CCFEA4
:1019800001A804F0FDFAFA20400003F0FFFE25490B
:10199000200004F01BFA7FBDBC000020500800208E
:1019A0004B6F00087B6F0008916F0008A66F00085E
:1019B0008102002080020020BC6F0008C16F000877
:1019C000C46F00080B740008740200206802002035
:1019D0005C02002050020020440200203802002057
:1019E0002C020020C96F00084C040000506C000855
:1019F000A4020020D96F0008EC6F0008F86F0008FF
:101A00000770000884020020127000082770000888
:101A10004070000851700008617000086C70000888
:101A20007E70000891700008F0B5304E87B03378B2
:101A300000AF0D002E4C7860012B11D10B332D49D6
:101A4000F81804F066FB0C232800F91804F01CFBBE
:101A50002900200004F0C4F90C23F81804F090FACF
:101A60006946AB6828005A1C0833DB08DB00CB1A38
:101A70009D463B606946002304F012FC69467B6882
:101A800078689B685A1C0833DB08DB00CB1A9D463C
:101A90000023694604F004FC3A6869461648FEF7DC
:101AA0007DFF164D2000290004F090F91449200014
:101AB00004F070F96946200004F09CF911492000F7
:101AC00004F084F93968200004F094F9290020001A
:101AD00004F07CF93378013B1A1CDBB2002B00D1F7
:101AE0000122BD46327007B0F0BDC046090000209B
:101AF000BC000020977000088402002011710008CB
:101B0000257100083A71000830B505008BB03849DE
:101B100001A804F07CFA374C01A8210004F021FB55
:101B2000354901A804F01DFB344901A804F013FB5A
:101B3000210001A804F015FB314901A804F011FBB4
:101B4000304901A804F007FB210001A804F009FBBB
:101B50002D4901A804F005FB2C4901A804F0FBFA6B
:101B6000210001A804F0FDFA294901A804F0F9FABE
:101B7000284901A804F0EFFA210001A804F0F1FAC5
:101B8000254901A804F0EDFA244901A804F0E3FA7C
:101B9000210001A804F0E5FA214901A804F0E1FAC6
:101BA000204901A804F0D7FA210001A804F0D9FACD
:101BB0001D4901A804F0D5FA1C4901A804F0CBFA8C
:101BC000290004A804F070FA01A907A804F06CFA2F
:101BD00007A904A8FFF728FF07A804F0D1F904A873
:101BE00004F0CEF901A804F0CBF90BB030BDC0462B
:101BF0004F710008597100085C71000874020020E0
:101C00005F71000868020020627100085C02002019
:101C1000657100085002002068710008440200202D
:101C20006B710008380200206E7100082C02002041
:101C300030B505008BB02C4901A804F0E8F92B4C15
:101C400001A8210004F08DFA294901A804F089FABD
:101C5000284901A804F07FFA210001A804F081FAC4
:101C6000254901A804F07DFA244901A804F073FA7B
:101C7000210001A804F075FA214901A804F071FAC5
:101C8000204901A804F067FA210001A804F069FACC
:101C90001D4901A804F065FA1C4901A804F05BFA8B
:101CA000210001A804F05DFA194901A804F059FACD
:101CB000184901A804F04FFA290004A804F0F4F927
:101CC00001A907A804F0F0F907A904A8FFF7ACFEE2
:101CD00007A804F055F904A804F052F901A804F08B
:101CE0004FF90BB030BDC0464F7100085971000864
:101CF000627100085C02002065710008500200203B
:101D000068710008440200206B710008380200204E
:101D10006E7100082C020020F0B50D000400484947
:101D2000280093B004F08BFA464F002843D03E7849
:101D3000002E00D09CE0012321000FA83B7004F08E
:101D4000B3F930000FA9FFF79DFA0FA804F018F9B6
:101D50003D4E2100300004F097F93C4909A804F0F9
:101D6000D8F93B4909A804F0FCF93A4909A804F05C
:101D700021FA09A9384804F033F831000CA804F01E
:101D800093F909A90FA804F08FF90FA90CA8FFF780
:101D90004BFE0FA804F0F4F80CA804F0F1F82F4E55
:101DA0002000310004F092F93100280004F08EF98F
:101DB00009A804F0E5F83B78002B59D1284909A877
:101DC00004F0A7F9244F09A9380004F009F821000C
:101DD0000CA804F069F909A90FA804F065F90FA986
:101DE0000CA8FFF721FE0FA804F0CAF80CA804F015
:101DF000C7F81A4E2000310004F068F931002800BD
:101E000004F064F91749380003F0E0FF164A174957
:101E10000FA8FEF781FC0FA804F0B2F8FA208000AA
:101E200003F0B4FC3100200004F050F93100280028
:101E300004F04CF909A804F0A3F813B0F0BDC046B3
:101E40007171000808000020740200207A710008F7
:101E50005971000885710008BC0000205B71000802
:101E6000A7710008D87100087E7000088402002065
:101E70002000EE4904F0D6F9061E00D0032620000B
:101E8000EB4904F0CFF9002800D003262000E949EF
:101E900004F0C8F9002800D003262000E64904F029
:101EA000C1F9002800D003262000E44904F0BAF963
:101EB000002800D00226E249200004F0B3F9E149ED
:101EC000002800D199E2200004F0ACF90126AB68AB
:101ED000012B00D89AE22800DB4904F0B0F9002871
:101EE00002D0012E00D19FE22800D84904F0A7F9C2
:101EF00000284ED0D64909A804F089F8D54B0FA880
:101F000019000093FEF772FA0FA909A804F023F94B
:101F10000FA804F035F8D04F09A8390004F021F9D2
:101F2000CE4909A804F01DF90098FEF70FFC010046
:101F300009A804F02EF9390009A804F012F93900B3
:101F400009A804F00EF9C64909A804F00AF909A97C
:101F5000C44803F045FF21000CA804F0A5F809A926
:101F60000FA804F0A1F80FA90CA8FFF75DFD0FA8BA
:101F700004F006F80CA804F003F8BB4F2000390069
:101F800004F0A4F83900280004F0A0F809A803F030
:101F9000F7FF2800B54904F052F9002831D000239A
:101FA000B34F3B70B34B39001868FFF7BDF8397871
:101FB000C02003F06FFBB04909A804F028F809A974
:101FC000A84803F00DFF21000CA804F06DF809A942
:101FD0000FA804F069F80FA90CA8FFF725FD0FA8BA
:101FE00003F0CEFF0CA803F0CBFF9F4F2000390079
:101FF00004F06CF83900280004F068F809A803F030
:10200000BFFF28009D4904F01AF9002831D00123B0
:10201000974F3B70974B39001868FFF785F8397870
:10202000C02003F037FB964909A803F0F0FF09A987
:102030008C4803F0D5FE21000CA804F035F809A95E
:102040000FA804F031F80FA90CA8FFF7EDFC0FA8BA
:1020500003F096FF0CA803F093FF834F2000390094
:1020600004F034F83900280004F030F809A803F02F
:1020700087FF2800834904F0E2F8002831D00023CC
:10208000814F3B70814B39001868FFF74DF8397864
:10209000C12003F0FFFA7E4909A803F0B8FF09A99F
:1020A000704803F09DFE21000CA803F0FDFF09A974
:1020B0000FA803F0F9FF0FA90CA8FFF7B5FC0FA8B4
:1020C00003F05EFF0CA803F05BFF674F20003900B0
:1020D00003F0FCFF3900280003F0F8FF09A803F023
:1020E0004FFF28006B4904F0AAF8002831D00123E3
:1020F000654F3B70654B39001868FFF715F8397864
:10210000C12003F0C7FA644909A803F080FF09A9B8
:10211000544803F065FE21000CA803F0C5FF09A98F
:102120000FA803F0C1FF0FA90CA8FFF77DFC0FA8B3
:1021300003F026FF0CA803F023FF4B4F20003900CB
:1021400003F0C4FF3900280003F0C0FF09A803F022
:1021500017FF2800514904F072F8002845D0504973
:1021600009A803F054FF3C4B09A81900009303F0A1
:10217000F8FF4C4909A803F0F4FF3D4F3B78002BD2
:1021800000D076E1484909A803F0EBFF009909A8BF
:1021900003F0E7FF454909A803F0E3FF3A4F3B7816
:1021A000002B00D06EE1404909A803F0DAFF2100BE
:1021B0000CA803F079FF09A90FA803F075FF0FA978
:1021C0000CA8FFF731FC0FA803F0DAFE0CA803F00F
:1021D000D7FE254F2000390003F078FF3900280092
:1021E00003F074FF09A803F0CBFE314F280039003B
:1021F00004F025F8002800D14DE1012E00D04AE17D
:1022000021000FA803F050FF0FA8FFF77DFC0FA8D7
:1022100003F0B6FE144B20001900009303F056FFA4
:102220000099280003F052FF390043E02C020020FF
:102230003802002044020020500200205C020020EE
:1022400074020020680200200B720008147200085B
:102250008C720008840200205971000897720008EF
:10226000A8720008BC0000205B710008C87200085A
:102270008102002004000020D0720008587300087A
:10228000DF720008EC7200088002002000000020CD
:10229000F4720008677300080373000810730008E5
:1022A0001773000825730008E77200082E730008F2
:1022B00037730008280003F0C2FF2800BB4903F071
:1022C000BEFF002800D188E0B94909A803F021FF2A
:1022D000B84B09A81900009303F043FFB64909A8B9
:1022E00003F068FF009909A803F03BFFB34909A870
:1022F00003F060FF009909A803F033FF731EDBB2FF
:102300000193012B07D8390009A803F02AFF00998F
:1023100009A803F026FFAA4909A803F04BFFA54F1F
:1023200009A8390003F01DFFA64909A803F042FFE0
:10233000390009A803F015FF019B012B27D8A249FA
:1023400009A803F037FF390009A803F00AFF9F49E5
:10235000012E08D19E4909A803F02CFF390009A8D5
:1023600003F0FFFE9B4909A803F024FF390009A8E8
:1023700003F0F7FE8F4F09A8390003F0F2FE9649EB
:1023800009A803F017FF390009A803F0EAFE8949FC
:1023900009A803F0E6FE914909A803F00BFF21000C
:1023A0000CA803F081FE09A90FA803F07DFE0FA978
:1023B0000CA8FFF739FB0FA803F0E2FD0CA803F00F
:1023C000DFFD874F2000390003F080FE3900280030
:1023D00003F07CFE09A803F0D3FD82490FA803F0A7
:1023E00016FE28000FA903F085FF002803D1731EF5
:1023F000DBB2012B6ED90FA81DE5200003F012FF00
:10240000002800D062E5002E00D060E5744F200067
:10241000390003F05BFE3900280003F057FE7249D3
:10242000724803F0D3FC56E5714909A803F071FE28
:1024300009A96E4803F0D4FC21000CA803F034FE77
:1024400009A90FA803F030FE0FA90CA8FFF7ECFABA
:102450000FA803F095FD0CA803F092FD604E20003C
:10246000310003F033FE3100280003F02FFEFEF7A9
:10247000A7FE604909A803F074FE3B78002B00D04A
:1024800084E67FE65B4909A803F06BFE3B78002BEE
:1024900000D08CE687E63900280003F0D0FE002843
:1024A00000D10AE7022E00D007E721000FA803F0B1
:1024B000FBFD0FA8FFF7BCFB0FA803F061FD484B25
:1024C00020001900009303F001FE2800009903F09A
:1024D000FDFDF2E60FA803F053FD444F46493800D6
:1024E00003F074FC04230322290003A803F036FF41
:1024F0004249380003F059FC03A9380003F070FC8E
:102500003F490FA803F083FD0FA9280003F0F2FE56
:1025100000900FA803F034FD009B052B00D0B9E11B
:102520003849380003F052FCAB68009A290006A82D
:1025300003F014FF0122089B00920B3B042B6DD982
:10254000314909A803F0E5FD380009A903F048FC6A
:1025500021000CA803F0A8FD09A90FA803F0A4FD11
:102560000FA90CA8FFF760FA0FA803F009FD0CA84B
:1025700003F006FD1A4903A803F0A8FD09A803F01B
:10258000FFFC06A803F0FCFC03A854E4009906A88D
:1025900003F082FE303809283CD938001B4903F08B
:1025A00015FC1B4909A803F0B4FDD1E73F730008EF
:1025B00044730008597100084F7300085E730008E7
:1025C00010730008147200086D73000892730008FD
:1025D000807300080B720008A0730008D173000814
:1025E0005B710008E2730008EC710008BC00002079
:1025F0001B720008D8720008E6730008FA7300081E
:102600000F740008117400081F740008617400083A
:1026100075740008009B0133DBB20093089B009A9D
:102620009A42B3D33800AE4903F0B4FB380006A990
:1026300003F0D6FBAB4903A803F001FEAA4F002824
:1026400000D1FEE0012E00D1C1E0390003A803F063
:10265000F6FDA64903A803F0F2FD00281BD006A949
:102660000FA803F021FD0FA9C820FEF70BFE0FA84D
:1026700003F086FC06A99E4803F006FD21000FA882
:10268000012E00D0E8E003F00FFD0FA8FFF73CFAA1
:102690000FA803F075FC974903A803F0D0FD0028AC
:1026A0001CD006A90FA803F0FFFC96200FA940003C
:1026B000FEF7E8FD0FA803F063FC06A98E4803F0BF
:1026C000E3FC21000FA8012E00D0CBE003F0ECFCCE
:1026D0000FA8FFF719FA0FA803F052FC874903A8C7
:1026E00003F0ADFD00281CD006A90FA803F0DCFC08
:1026F000C8200FA94000FEF7C5FD0FA803F040FC5D
:1027000006A97F4803F0C0FC21000FA8012E00D0CD
:10271000AEE003F0C9FC0FA8FFF7F6F90FA803F02D
:102720002FFC784903A803F08AFD00281CD006A9D5
:102730000FA803F0B9FCFA200FA94000FEF7A2FD94
:102740000FA803F01DFC06A96F4803F09DFC2100B3
:102750000FA8012E00D091E003F0A6FC0FA8FFF710
:10276000D3F90FA803F00CFC684903A803F067FD38
:1027700000281BD006A90FA803F096FC96200FA9ED
:102780008000FEF77FFD0FA803F0FAFB06A9604862
:1027900003F07AFC21000FA8012E75D103F084FC10
:1027A0000FA8FFF7B1F90FA803F0EAFB59495A48FF
:1027B00003F0FBFA06A803F0E3FB584E20003100BB
:1027C00003F084FC3100280003F080FCDCE606A95D
:1027D0000FA803F069FC0FA90020FEF753FD0FA816
:1027E00003F0CEFB06A94E4803F04EFC21000FA8D3
:1027F00003F05AFC0FA8FFF787F90FA803F0C0FBFE
:10280000390003A803F01BFD002800D121E706A929
:102810000FA803F049FC0FA96420FEF733FD0FA8B1
:1028200003F0AEFB06A93F4803F02EFC21000FA8E1
:1028300003F03AFC0FA8FFF767F90FA803F0A0FB1D
:1028400007E7390003A803F0FAFC002800D100E7ED
:10285000012E00D0FDE6DAE703F026FC0FA8FFF713
:10286000E7F915E703F020FC0FA8FFF7E1F932E7DD
:1028700003F01AFC0FA8FFF7DBF94FE703F014FC95
:102880000FA8FFF7D5F96CE703F00EFC0FA8FFF7D0
:10289000CFF988E7244909A803F03BFC21000CA8E4
:1028A00003F002FC09A90FA803F0FEFB0FA90CA876
:1028B000FFF7BAF80FA803F063FB0CA803F060FB66
:1028C000164E2000310003F001FC3100280003F017
:1028D000FDFB380009A903F083FA09A86BE7C0469D
:1028E000A47400083A6D0008B3740008006F000873
:1028F0005C0200206F6C000850020020B5740008D4
:1029000044020020056E000838020020B774000859
:102910002C020020876E0008BC0000205B710008BC
:102920007402002068020020B9740008F7B5234D36
:10293000234C244F290024480B26276003F067FB13
:102940000D2301226661A3612277204C29002048D3
:10295000276003F05CFB0D230122A36122776661EF
:102960001C4C1D48210003F052FB21001B4803F0C2
:102970004EFB21001A4803F04AFB2100194803F0DE
:1029800046FB2100184803F042FB2100174803F0E2
:102990003EFB2100164803F03AFB2100154803F0E6
:1029A00036FB2900144803F032FB272309220A21B1
:1029B0000093124803F02AF8F7BDC0465B71000887
:1029C000A402002050080020AC0200208402002055
:1029D0008C020020F46E00087402002068020020BF
:1029E0005C02002050020020440200203802002037
:1029F0002C0200202002002014020020BC00002035
:102A000010B5114803F0BCFA104803F0B9FA1048A9
:102A100003F0B6FA0F4803F0B3FA0F4803F0B0FA28
:102A20000E4803F0ADFA0E4803F0AAFA0D4803F081
:102A3000A7FA0D4803F0A4FA0C4803F0A1FA0C48D9
:102A400003F09EFA10BDC0461402002020020020B0
:102A50002C020020380200204402002050020020F6
:102A60005C02002068020020740200208C0200201A
:102A7000AC020020F0B5C34C8FB0200002F095FEF0
:102A8000002879D0210008A803F066FABE4908A8FA
:102A900003F0D5FB00280ED0BC49200003F07AF9E2
:102AA000BB490BA8FDF7A2FC20000BA903F098F985
:102AB0000BA803F065FAB74908A803F0C0FB00288B
:102AC0000BD0B549200003F065F9B148FDF738FC9B
:102AD0000A220100200003F0DBF9B04908A803F046
:102AE000AEFB00280BD00022A9490BA8FDF7A0FFE0
:102AF00020000BA903F074F90BA803F041FAA849D0
:102B000008A803F09CFB00280BD0A64AA0490BA8FC
:102B1000FDF702FEFA20400002F038FE0BA803F099
:102B20002FFAA14908A803F08AFB002805D09F4985
:102B3000200003F04BF9FEF743FB9D4908A803F082
:102B40007EFB00280BD09B49200003F023F990481E
:102B5000FDF7FCFD0A220100200003F0B7F99649B9
:102B600008A803F06CFB002803D02000934903F071
:102B70002DF908A803F004FA914D280002F015FE83
:102B8000002800D1ABE0290002A803F0E5F98D4947
:102B90000BA803F03CFA0BA902A803F0ABFB05005D
:102BA0000BA803F0EDF9013500D1AFE08649200014
:102BB00003F0F0F802A90BA803F076FA744D0BA904
:102BC0002800FEF743FA07000BA803F0D9F90A2200
:102BD0003900200003F05CF97C49200003F0DAF8AA
:102BE0003A0029000BA8FEF7A1F9794E0BA9300095
:102BF00003F064FA0BA803F0C3F93100200003F0DE
:102C0000EFF802A90BA803F04FFA0BAA290005A8B8
:102C1000FEF7DCF90BA803F0B3F96E49200003F0CE
:102C2000B9F805A9200003F0DBF86B4908A803F008
:102C3000EEF908A905A803F05DFB079B421D05A955
:102C40000BA803F08BFB654B0BA91800019303F055
:102C500035FA0BA803F094F908A803F091F960493C
:102C6000200003F097F80199200003F0B9F839002B
:102C70002800FEF71FFA05A803F082F95949200041
:102C800003F0A4F82900474A0BA8FDF745FD0BA85F
:102C900003F076F9FA20400002F078FD00222900C6
:102CA0000BA8FDF7C5FE0BA9200003F099F80BA8AF
:102CB00003F066F9310008A803F0F6F901990BA8B2
:102CC00003F0F2F90BA908A8FFF726F80BA803F008
:102CD00057F908A803F054F902A803F051F90021AC
:102CE0001F2002F0D7FC01211E2002F0D3FC64203B
:102CF00002F04CFD01211F2002F0CCFC00211E201F
:102D000002F0C8FC642002F041FD38E002A9200076
:102D100003F066F834490BA803F079F90BA902A86F
:102D200003F0E8FA05000BA803F02AF901351FD0DB
:102D300020002E4903F02EF81E241F250021280014
:102D400002F0A8FC00211E2002F0A4FC642002F086
:102D50001DFD0121280002F09DFC013C01211E20E7
:102D600002F098FCE4B2642002F010FD002CE5D1E2
:102D70001F4902A803F0AAF902A803F001F90FB055
:102D8000F0BDC046BC000020E9720008FA740008DB
:102D9000840200200A7500080E7500081B750008E3
:102DA000207500087E700008247500081B7200085A
:102DB000147200082B7500083F7300083475000872
:102DC00050080020426E0008B6750008C47500085F
:102DD00020020020CE750008316E00081402002089
:102DE000D4750008D8710008A76D0008DE750008CA
:102DF0005B710008802210B502480349D20003F03D
:102E000069FE10BDC802002000FC000810B50400D7
:102E1000FFF7F0FF014B185D10BDC046C80200204F
:102E2000002330B585B000930193124B0293012328
:102E3000039300F00FFB00281AD114220E4B6946B1
:102E4000DA6001A800F0B8FB041E0FD18025ED0068
:102E50000A4B0849E31803201A685B68611800F000
:102E600041FB002802D10834AC42F1D100F006FB4E
:102E700005B030BD00FC000800200240C802002060
:102E800010B5024B1954FFF7CBFF10BDC80200204C
:102E900003000A4910B50868C318EFF3088293428B
:102EA00005D90C220120064B40421A6010BD054A8C
:102EB000054C121B9342F4D20B60F7E70C00002084
:102EC000000B00200020002000040000FEE70000AE
:102ED00016220120014B40421A607047000B00206F
:102EE00001207047836810B50400002B05D0032231
:102EF000010098470023A360E36010BD836810B50C
:102F00000400002B02D0032201009847200010BDCE
:102F1000114A0300002093421CD0104A0130934212
:102F200018D00F4A0130934214D00E4A0130934218
:102F300010D00D4A013093420CD00C4A013093421C
:102F400008D00B4A9B185A4253415842094B18402B
:102F5000094BC0187047C046002C014000040040D7
:102F600000100040002000400040014000440140AB
:102F700000B8FEBF0700FFFFFFFF000070B50400B0
:102F80000069FFF7C5FF05002000103001F01EFFAB
:102F90000022084BAD00EA5026002500E260B03563
:102FA0006036B54204D0103D2800FFF7A7FFF8E7D0
:102FB000200070BDC8060020F7B5040008000D0011
:102FC000FFF7A6FF1F4FB84200D1FEE72369002B91
:102FD00000D0FEE721001C4A80000C318150220005
:102FE0002C32256126001370203223636363A363B0
:102FF000E36323646364A364137053700322103685
:10300000E3653000E460A26501F06CFE230025005A
:10301000B033603501932800FFF764FF019B103542
:103020009D42F8D1002323606360A3606361A361C4
:103030002362636280333000E761A36200F0B4FE74
:10304000F7BDC046FFFF0000C8060020044B10B5C6
:103050001868002802D0043000F0BEFD10BDC04644
:10306000C806002010B5FFF7F1FF10BD044B10B5E6
:103070005868002802D0043000F0AEFD10BDC046F4
:10308000C8060020044B10B59868002802D0043010
:1030900000F0A2FD10BDC046C8060020044B10B5CC
:1030A000D868002802D0043000F096FD10BDC0465C
:1030B000C8060020044B10B51869002802D004305F
:1030C00000F08AFD10BDC046C8060020044B10B5B4
:1030D0005869002802D0043000F07EFD10BDC046C3
:1030E000C8060020044B10B59869002802D00430AF
:1030F00000F072FD10BDC046C806002010B50C22BD
:103100000021040003F06DFC00232000E36010BDEB
:10311000F8B50500070004000E006035B037280040
:103120001035FFF7EBFFBD42F9D10023310020003D
:103130002361FFF741FF2000F8BD836810B5002B25
:1031400001D103F073FDC368984710BD10B5002886
:1031500000D1FEE701F0C4FD0068836E002B02D0B1
:103160006030FFF7EAFF10BD10B5FFF7EFFF10BDAD
:10317000030010B5002800D1FEE7007F01380728C2
:1031800012D8FCF7AFFF041611121111111401240B
:10319000180001F0A5FD06340068240100198368B9
:1031A000002B01D0FFF7C9FF10BD0324F0E7042472
:1031B000EEE70224ECE710B5FFF7DAFF10BD10B51B
:1031C000FFF7D6FF10BD10B503F05EFA10BD10B5C5
:1031D00003F064FA10BD704770B50500FA200D4B7E
:1031E00080001978FCF788FF0B4C01002068FCF781
:1031F00083FF00F07DF804000120002C09D1032D8D
:1032000007D802382200290000F02CF82000034BD8
:103210001D6070BD10000020480000201400002038
:103220001023064A10B5116800200B431360FFF706
:10323000D3FFFFF7D0FF002010BDC04600200240A2
:10324000034A044B11681B785B1813607047C04633
:10325000E406002010000020014B18687047C046AB
:10326000E406002010B5FF2403220B0021000240D9
:10327000D20091409B012340C943934000280ADBC0
:10328000C0240B4A800880008018A40002590A401C
:103290001343035110BD0F2210400838054A80081F
:1032A00080008018C26911401943C161F2E7C0462D
:1032B00000E100E000ED00E0002805DB1F231840DE
:1032C0001E3B8340014A13607047C04600E100E0A6
:1032D000002809DB1F2318401E3B8340034AD367A5
:1032E000BFF34F8FBFF36F8F7047C04604E100E01C
:1032F0008022431E5204012093420DD2C021074A6E
:1033000007485360036A09061B021B0A0B4303624A
:1033100000200723906013607047C04610E000E073
:1033200000ED00E0002807DB1F23C02218401E3BF1
:103330008340024952008B507047C04600E100E0D4
:10334000704710B5FFF7FCFF10BD704710B50400C3
:103350000120002C1ED0637DDAB2002B03D12000A7
:103360002275FFF7F2FF0223227963752368002A92
:1033700011D1013A60211A619A6800208A43E168FC
:103380000A4380219A609A688A4321690A439A60B5
:103390000123637510BDA268ECE730B5841CE27FA1
:1033A0000300022A06D00422826301200022013396
:1033B000DA7730BD02680E20116881431160012167
:1033C0000D00106888431060186CDA6B854000208F
:1033D0005560E177EAE770B5841CE37F022B03D0E8
:1033E00004238363012070BD0E2103681A688A4399
:1033F0001A6001221500196891431960016CC36BB2
:103400008D405D60E27783180022DA77436B934248
:1034100000D098470020E6E70C4A1021D06830B56C
:1034200003000B40084205D002230948C469234326
:10343000C3610B000420D168014205D00121044C76
:103440000343E5692943E161D36030BD00200240B8
:10345000E8060020064B00201A69120606D5054A28
:103460005A60054A5A6018690006C00F7047C04686
:103470000020024023016745AB89EFCD8023034A3A
:10348000002011690B4313617047C04600200240C1
:1034900070B50400FFF7E0FE01260500104BDA6866
:1034A000324211D12022D968114200D0DA60D968A5
:1034B000102208001040114202D1DB685B0708D5DA
:1034C000FFF7AAFF012004E0621CE8D0002C01D124
:1034D000032070BDFFF7C0FE401BA042DED9F7E716
:1034E00000200240F0B585B003931E4B009102927C
:1034F0001A7E04000220012A31D001221A481A76CD
:10350000FFF7C6FF002827D12600012C03D0042690
:10351000022C00D126000024124B0193029803993B
:103520002201FCF775FE00220127019B0F4DDA6195
:103530002B69009A3B432B6163009B1880B2188073
:103540000948FFF7A5FF2B69BB432B61002803D176
:10355000E419E3B29E42E1D80022024B1A7605B08C
:10356000F0BDC046E806002050C300000020024025
:103570000022064BDA61064B043219690A431A61CC
:10358000402219690A431A617047C046E8060020C4
:10359000002002400022064BDA61064B0232196914
:1035A0000A431A614022586119690A431A61704737
:1035B000E806002000200240F8B5214F04003B7EC1
:1035C0000E000220012B0CD001233B7623681D48FE
:1035D000012B12D1FFF75CFF002803D0012000234C
:1035E0003B76F8BDFFF7C4FF1648FFF751FF0421F3
:1035F000154A13698B431361F1E7FFF749FF002870
:10360000ECD101235B42336065680130A3686268D6
:103610009B029B18AB42E2D92800FFF7BBFF094889
:10362000FFF736FF0221084A13698B431361002814
:1036300001D03560D3E78023DB00ED18E6E7C04614
:10364000E806002050C3000000200240044B10B5E3
:103650005A69104202D0586101F0AAFE10BDC0465E
:1036600000040140F0B5040085B0002845D003688F
:10367000DB072FD423689B0700D581E023681B0755
:1036800000D5BCE023685B0700D5DFE02368DB06DC
:103690001AD562690423B44D012A00D048E1696B50
:1036A00002270B436B636B6B1A436A63FFF7D4FD0E
:1036B00006006B6B3B4200D133E1F8216A6BA369D2
:1036C0008A43DB0013436B63236A002B00D057E16E
:1036D00000202AE00C22A44D6B681340042B06D076
:1036E0006B681340082B0AD16B68DB0307D52B6886
:1036F0009B03BFD56368002BBCD1012015E0636834
:10370000012B14D180232A685B0213432B60FFF73F
:10371000A3FD80270600BF022B683B42AAD1FFF71A
:103720009BFD801B6428F7D9032005B0F0BD002B5A
:1037300016D12B688D4A802713402B602B688C4A4A
:10374000BF0213402B60FFF787FD06002B683B424A
:1037500000D18FE7FFF780FD801B6428F6D9E3E7EF
:10376000052B05D180232A68DB0213432B60C9E7B0
:103770002B687E4A13402B602B687D4A1340C5E7B7
:103780000C22794D6B68134206D06B681340082BEE
:1037900010D16B68DB030DD42B689B0702D5E3685F
:1037A000012BAAD1F8212A6823698A43DB0013433D
:1037B0002B6063E7E2680123002A0FD02A68022702
:1037C00013432B60FFF748FD06002B683B42E9D10D
:1037D000FFF742FD801B0228F7D9A5E72A680227D8
:1037E0009A432A60FFF738FD06002B683B4200D160
:1037F00044E7FFF731FD801B0228F6D994E7E26920
:103800000123594D002A10D06A6A022713436B62C4
:10381000FFF722FD06006B6A3B4200D032E7FFF75C
:103820001BFD801B0228F6D97EE76A6A02279A43AD
:103830006A62FFF711FD06006B6A3B4200D121E787
:10384000FFF70AFD801B0228F6D96DE780220021D0
:10385000454D5205EB690091134208D1EB691343C2
:10386000EB61EB6913400393039B012300938027D3
:10387000404E7F0033683B4215D0A368012B22D114
:103880002A6A13432B62FFF7E7FC022706002B6A24
:103890003B423FD0009B012B00D0F7E6EB69364A54
:1038A0001340EB61F2E633683B433360FFF7D4FC2F
:1038B000019033683B42E0D1FFF7CEFC019BC01A78
:1038C0006428F6D930E70122002B14D12B6A022795
:1038D00093432B622B6A033293432B62FFF7BCFCAA
:1038E00006002B6A3B42D5D0FFF7B6FC234B801B6A
:1038F0009842F6D918E7052B05D1296A013B0B43FD
:103900002B622B6ABDE72B6A934304222B622B6A3E
:103910009343B7E7FFF7A0FC184B801B9842B6D93A
:1039200002E7FFF799FC801B022800D8C1E6FBE6FE
:10393000053203D16A6B9A436A63BEE66A6B02275B
:10394000134301226B636B6B93436B63FFF784FC40
:1039500006006B6B3B4200D1B6E6FFF77DFC801B97
:103960000228F6D9E0E6C04600100240FFFFFEFF45
:10397000FFFFFBFF00700040FFFFFFEF8813000018
:103980000C21344D6A680A40082A47D0324A022B7B
:1039900032D12B68802713402B60FFF75DFC0600B7
:1039A000BF042B683B4221D10F22EB6A8026934350
:1039B000E26AB6041343EB62616AA36A6A680B4366
:1039C00026490A4013436B6080232A685B04134333
:1039D0002B60FFF741FC04002B68334200D077E6F0
:1039E000FFF73AFC001B0228F6D99DE6FFF734FCEE
:1039F000801B0228D5D997E62B68802613402B60C0
:103A0000FFF72AFC0400B6042B68334200D15FE6BE
:103A1000FFF722FC001B0228F6D985E6012B00D116
:103A20006BE680226868616A5202EB6A02408A4251
:103A300000D062E60F221340E26A934200D05CE6B7
:103A4000F0239B031840A36AC01A431E9841C0B2DA
:103A50006BE6C04600100240FFFFFFFEFFFFC2FF03
:103A60000C2270B50C4D6B681A40082A11D10F203A
:103A70000A499A0C02408C5CEA6ADB0307D50849C4
:103A80000240895C0748FCF737FB604370BD06487D
:103A9000FBE70448FAE7C046001002402876000819
:103AA0001876000800127A0000093D00F7B50400FE
:103AB0000E00002801D10120FEBD0122374D2B68E8
:103AC00013408B421CD32268930722D4D2072FD4F1
:103AD00001232A681A40B24251D82368304D5B074F
:103AE00054D4FFF7BDFF6B682E4A1B061B0FD35C37
:103AF0002D49D84008600020FFF76EFB0020DBE76F
:103B00002B6893430B432B602B6813408B42D2D11D
:103B1000D9E72349530704D5E0234868DB00034372
:103B20004B60F0204B688343A06803434B60CDE7B4
:103B30001B4F62683B68012A19D19B03BBD5032147
:103B40007B688B4313437B60FFF786FB01900C235C
:103B50007A681A4063689B009A42B9D0FFF77CFBF1
:103B6000019BC01A114B9842F1D90320A4E7022A05
:103B700002D19B01E3D49EE79B07E0D49BE72A6830
:103B80009A432A602A681A42A7D094E76B68084AC9
:103B90001340E26813436B60A3E7C0460020024075
:103BA00000100240847600084800002088130000BE
:103BB000FFF8FFFF044B054A5B6805495B055B0F97
:103BC000CB5C1068D84070470010024048000020CD
:103BD0007C760008704770470222036810B51969A7
:103BE000040011420ED0D96811420BD0053A1A6177
:103BF000043202779B699B0700D179E0FFF7DFFA77
:103C000000232377042223681969114210D0D96850
:103C100011420DD0093A1A61073222779A69C023FE
:103C20009B0020001A4269D0FFF7C9FA00232377CE
:103C300008222368196911420ED0D96811420BD0AD
:103C4000113A1A610D322277DB6920009B075BD0A5
:103C5000FFF7B5FA00232377102223681969114270
:103C600010D0D96811420DD0213A1A611932227749
:103C7000DA69C0239B0020001A424BD0FFF79FFA5D
:103C800000232377012223681969114207D0D968DC
:103C9000114204D0033A20001A61FFF765FA80222E
:103CA00023681969114208D0D968114205D0023A37
:103CB000FF3A20001A6100F0A0F840222368196939
:103CC000114207D0D968114204D0813A20001A610C
:103CD000FFF781FF202223681969114207D0D968B4
:103CE000114204D0413A20001A6100F085F810BD5D
:103CF000FFF761FA2000FFF76DFF81E7FFF75BFA3E
:103D00002000FFF767FF91E7FFF755FA2000FFF764
:103D100061FF9FE7FFF74FFA2000FFF75BFFAFE778
:103D200010B51A4C0368A04202D0194A904208D13B
:103D3000702293434A681343164A1A40CB681343D0
:103D40000BE0154A9042F7D0144A9042F4D0144A3E
:103D50009042F1D0134A9042EED0802293434A69B8
:103D6000134303608B68C3620B688362A04208D070
:103D70000A4B984205D00A4B984202D0094B984210
:103D800001D10B6903630123436110BD002C014085
:103D900000040040FFFCFFFF002000400040014005
:103DA000004401400048014070B504000120002C8F
:103DB00021D025003D352B78DAB2002B05D1230028
:103DC0003C3320001A7001F0BFF802232B702068EA
:103DD000211DFFF7A5FF22000123002046321370AA
:103DE0004534083A137053709370D3701371537144
:103DF000937123702B7070BD7047704730B5EFF32F
:103E00001084012282F310880168124D0B682B4048
:103E10000B6084F31088EFF3108482F3108801683C
:103E20008B6893438B6084F31088036E93420AD1AE
:103E3000EFF3108183F31088102402681368A34302
:103E4000136081F310882022031DDA6700230366C4
:103E5000836630BDDFFEFFFF30B5EFF31084012233
:103E600082F31088802501680B68AB430B6084F3F4
:103E70001088EFF3108182F31088402302681068E5
:103E80000343136081F3108830BDC36F10B5212B3D
:103E900006D1020052321388002B02D1FFF7DCFF5B
:103EA00010BDC36C01681C7801330C85C364138892
:103EB000013B9BB21380F3E7C36F10B5212B06D1F2
:103EC000010052310B88002B02D1FFF7C5FF10BD56
:103ED000C26C046813880232DB05DB0D2385C264E3
:103EE0000B88013B9BB20B80F1E7704710B5C46FA4
:103EF00003000220202C37D10138002934D0002AB9
:103F000032D080209C68400184420CD0D9641900D2
:103F100050310A804A801A0000210832D1672122DC
:103F2000DA67124A12E018690028EFD10C0001305C
:103F30000440014218D1D964190050310A804A80E6
:103F40001A000832D4672122DA67094ADA66EFF3E9
:103F50001081012282F310881A68802310680343BD
:103F6000136081F31088002010BDC0468B3E00080E
:103F7000B93E0008406A0023020010B55A3213808F
:103F8000083A138001F0A2F910BD70470168F8B536
:103F9000CB690400B5480A688E6803420CD1202022
:103FA000034200D1A7E0024200D1A4E0A36E2000AA
:103FB000002B00D095E095E0012035000540064239
:103FC00015D0022603422FD133423ED002202700D3
:103FD000042608620837F86F3043F867334236D159
:103FE00018073ED52020104028430DD139E0A04EBF
:103FF000324200D17FE0022603420CD15807EFD5B0
:1040000018072ED590062CD5082008622518EE6FCB
:104010003043E86725E0D0050BD43342EED1580792
:10402000DED5002D13D1EBE7D00502D43342CDD13C
:10403000F5E70120260008620836F76F3843F0677D
:104040009807ECD5002DD9D0C0E75807C8D5042073
:10405000250008620835EE6F02383043E86718071C
:10406000D2D48020250000010835034206D0560135
:1040700004D508622021E86F0143E967E96F002950
:1040800030D020210B4206D00A4204D0A36E002B70
:1040900001D0200098472268EB6F402796682822BD
:1040A0003E40134020001E4321D0FFF7A7FE2368A7
:1040B0009B683B4217D0EFF31081012383F31088F4
:1040C00022689368BB43936081F31088606F002877
:1040D00009D0684B4363FFF77EF9002802D0606F78
:1040E000436B9847F8BD200001F0F0F8FAE701F0C3
:1040F000EDF8EE67F6E7206E012800D095E0102578
:104100002B4200D191E02A4200D18EE00D628B68F3
:1041100040211E000E400B424FD0626F13685B6857
:104120009BB2002BDED02600583637889F42D9D963
:1041300027005A373B809369202B32D0EFF310874A
:1041400080F3108822684C4D13682B40136087F36E
:104150001088EFF3108780F31088226893688343F8
:10416000936087F31088EFF3108C80F3108823009E
:1041700080CBBA688A43BA608CF310882022DA6751
:1041800000232366EFF3108180F310882268123534
:104190001368FF35AB43136081F31088606FFFF73E
:1041A000FCF80223636623005A331B883188C91A3E
:1041B00089B22000FFF7E9FE94E72300220058337C
:1041C0005A321988138812889BB2002A00D189E7D5
:1041D000C91A89B2002900D184E7EFF3108780F370
:1041E00010882268254D13682B40136087F31088D0
:1041F000EFF3108C80F31088230080CBBA688243E1
:10420000BA608CF310882022DA672666A666EFF380
:10421000108680F31088102022681368834313608F
:1042200086F3108802236366C3E780210B4203D024
:104230000A4201D0E36EBAE640210B4200D151E7B9
:104240000A4200D14EE7EFF31080012383F3108878
:10425000226813688B43136080F310882023E36780
:1042600000232000E36601F02AF83BE70F08000076
:1042700020010004753F0008FFFEFFFFDFFEFFFF87
:10428000F8B50300011DCC6F5C331A880368222C3B
:1042900057D19B8C446D134002002370436D5A32FA
:1042A000013343651388013B9BB2138013889CB292
:1042B000002B42D1EFF31086013383F31088056899
:1042C000224F2A683A402A6086F31088EFF310865E
:1042D00083F310880568AA689A43AA6086F3108859
:1042E0002022CA67026844665268846612020AD5B0
:1042F000EFF3108183F310880268154C1368234094
:10430000136081F31088036E012B17D1002202661F
:10431000EFF3108483F3108801680F330A689A431F
:104320000A6084F310880268D169194200D01362D0
:10433000030058331988FFF728FEF8BD00F0B8FFD6
:10434000FBE7082299690A439A61F6E7DFFEFFFF5F
:10435000FFFFFFFBF8B50300021DD16F5C331C8823
:104360000368222956D1998C436D214019800100A0
:10437000023343655A310B88013B9BB20B800B889B
:104380009CB2002B42D1EFF31086013383F31088E7
:104390000568234F29683940296086F31088EFF3B8
:1043A000108683F310880568A9689943A96086F38D
:1043B00010882021D1670268446652688466120220
:1043C0000AD5EFF3108183F310880268154C136847
:1043D0002340136081F31088036E012B17D1002254
:1043E0000266EFF3108483F3108801680F330A68C4
:1043F0009A430A6084F310880268D169194200D098
:104400001362030058331988FFF7BFFDF8BD00F0B1
:104410004FFFFBE7082299690A439A61F6E7C04615
:10442000DFFEFFFFFFFFFFFB020070B5783211785F
:104430000300022001291DD0012122301170D8670C
:10444000EFF3108581F310880C261C682068B043B8
:10445000206085F31088EFF3108481F310881868CA
:10446000073105682943016084F31088202100206A
:10447000D967107070BD020070B5783211780300F2
:10448000022001291DD0012122301170D867EFF3DD
:10449000108581F310880C261C682068B0432060CA
:1044A00085F31088EFF3108481F3108818680331C6
:1044B00005682943016084F3108820210020D96712
:1044C000107070BDC36F0430C06F18437047000098
:1044D00070B504002569A26801682A436569C3694B
:1044E0002A4308683C4D1A43284002430A604A6840
:1044F0003A48256A0240E06802434A60A269886837
:104500002A43374D284002438A60364A914215D1EA
:104510000321354A126B0A40013A022A11D8334965
:10452000885C80221202934231D1082851D8FBF7CF
:10453000D9FD0C5018501550505019002C4A91427A
:1045400047D180221202934238D1FFF733FB031E7A
:1045500008D100200023A366E36670BDFFF780FA50
:10456000F5E7244B616858004B08C018FBF7C4FD01
:104570000200214B103A9A422BD80F230200000769
:104580009A4393B2400F22680343D360E1E70828BF
:104590001FD8FBF7A7FD131E051E181E1E1E1B00AD
:1045A000144861684B081818FBF7A6FD0200124B6F
:1045B000103A9A420DD82368D860CAE7FFF7FAFA92
:1045C0000028C6D0EDE7FFF74BFAF9E7802000029C
:1045D000E7E70120BEE7C046F369FFFFFFCFFFFF1B
:1045E000FFF4FFFF00380140001002403876000859
:1045F0000044004000127A00EFFF0000436A30B52B
:10460000DA0706D50168284C4A682240846A2243AA
:104610004A609A0706D50168244C4A682240C46A59
:1046200022434A605A0706D50168214C4A68224055
:10463000046B22434A601A0706D501681D4C4A687C
:104640002240446B22434A60DA0606D501681A4CC0
:104650008A682240846B22438A609A0606D50168E4
:10466000164C8A682240C46B22438A605A0610D5D1
:104670000168134D4A68046C2A4022434A60802234
:104680005203944205D14A680E4C2240446C2243A6
:104690004A601B0606D502680B4953680B40816CC3
:1046A0000B43536030BDC046FFFFFDFFFFFFFEFF21
:1046B000FFFFFBFFFF7FFFFFFFEFFFFFFFDFFFFFBE
:1046C000FFFFEFFFFFFF9FFFFFFFF7FFF7B50400BE
:1046D0000D00170000932268D3692B405B1B5942E1
:1046E0004B41BB4201D0002020E0089B0133F3D0B6
:1046F000FEF7B2FD009BC01A089B984227D8002BFA
:1047000025D023681A685207E5D5DA690826110012
:104710003140019132420AD020001E62FFF76EFB49
:10472000A319DE670023012078342370FEBD8022A8
:10473000D96912011142CED01A622000FFF75EFB48
:10474000230020220833DA67019B7834237003208A
:10475000ECE70000030073B5002504000833DD67B3
:10476000FEF77AFD236806001B681B071DD5802114
:10477000264B2A000093890303002000FFF7A6FFC1
:10478000A84212D0EFF31081012383F31088802018
:10479000226813688343136081F310882023E36742
:1047A000032000237834237076BD250008CD1B68D4
:1047B0005B0723D58021154B002200932000330096
:1047C000C903FFF783FF002818D0EFF31080012200
:1047D00082F3108821680E4E0B6833400B6080F323
:1047E0001088EFF3108082F3108821688B68934360
:1047F0008B6080F310882023EB67D1E72023002013
:10480000E367EB6720666066CBE7C046FFFFFF010A
:10481000DFFEFFFF10B5041E01D1012010BDC36FE4
:10482000002B04D1020078321370FFF75EFB2423C3
:1048300001212268E367136820008B431360FFF7B0
:1048400047FE0128E9D0636A002B02D02000FFF761
:10485000D5FE236807495A6820000A4008215A609B
:104860009A688A439A60012219680A431A60FFF71E
:1048700071FFD3E7FFF7FFFF10B5041E01D1012040
:1048800010BDC36F002B04D1020078321370FFF704
:104890002CFB242301212268E367136820008B434B
:1048A0001360FFF715FE0128E9D0636A002B02D0E0
:1048B0002000FFF7A3FE236807495A6820000A403A
:1048C0005A60082299680A439A60012219680A43CB
:1048D0001A60FFF73FFFD3E7FFF7FFFF03005833EE
:1048E00010B541651A805A80802100238268836652
:1048F00049018A4238D103695A1E9341FF225B4223
:104900009343214A9B1802005C321380030000226B
:104910000833DA67031D2232DA67EFF310810123CF
:1049200083F31088026894682343936081F31088AE
:10493000802184680269154B49018C4202D1002A0A
:1049400000D1134B83660123002A15D0EFF31081A9
:1049500083F31088026820331068FF330343136029
:1049600081F31088002010BD002ACCD102697F237A
:10497000002AC8D18033C6E7EFF3108183F3108893
:10498000026820231068E9E7FF0100008142000867
:10499000554300080300043070B5C46F0220202C7A
:1049A00025D10138002922D0002A20D080209C68FF
:1049B0004001844205D11869002802D1013001422A
:1049C00015D1002018661868406800020CD5EFF376
:1049D0001085012080F3108880201C68C0042668A0
:1049E0003043206085F310881800FFF777FF70BD13
:1049F0007FB50023042810D81B4B80215A69FBF790
:104A000071FB030F18212A0089020A435A615B696E
:104A10000B400193019B9023DB05180007B000BDFC
:104A2000C9020A435A615B690B400293029B0F4B18
:104A3000F3E709030A435A615B690B400393039B45
:104A40000B4BEAE749030A435A615B690B40049345
:104A5000049B084BE1E7C9030A435A615B690B40B9
:104A60000593059B044BD8E7001002400004004862
:104A700000080048000C00480014004810B5FEF77C
:104A8000EBFB10BD704710B5FEF7DAFBFEF759FCE3
:104A9000FFF7F8FF10BD704780210E4B4905DA691A
:104AA00084B00A43DA61DA690A4001210192019A6D
:104AB0009A690A439A619A690A400292029A5A696B
:104AC0003F310A435A615B690B400393039B04B077
:104AD0007047C0460010024010B5FFF7DDFFFEF73B
:104AE0009FFBFFF7D8FF00F025FD0248FEF72EFCE4
:104AF00010BDC0462C000020431C04D1002070478C
:104B0000834204D00C310B685A1CF9D1F6E701201E
:104B1000F5E70000F7B506000C00431C00D1FEE7E6
:104B20000F210200334B0A40000992000840D5587B
:104B3000FFF75EFF29000322030069434A438068B0
:104B4000D743104398600720204003282CD8FBF758
:104B5000C9FA422C02366004420E01924A00944681
:104B6000019A7F2A0ED0360711D50F265A6A1000F7
:104B70002A0A524352435643B04306000198424327
:104B800016435E6260461A683A40024310E01A6AB1
:104B90000F2610000A004A435643B043060001980E
:104BA000424316431E62EDE7FEE71A683A400A43A5
:104BB0001A60220712D55A682A435A6002E0186820
:104BC00002431A60A406A40F012C0AD0022C0DD0B7
:104BD000DA683A4008E01A683A40F2E75A68AA43AD
:104BE000EBE7DA683A400A43DA60F7BDDA68490071
:104BF0003A40F8E73C76000810B5431C07D110BDD9
:104C0000834203D18968FFF785FFF8E70C310B6811
:104C10005A1CF5D1FEE70B685A1C01D1002002E0B6
:104C2000834201D1486870470C31F4E7002310B586
:104C3000421C02D0FFF7EFFF0300180010BD4B68C5
:104C4000002B02D10120404202E0834201D10868DA
:104C500070470C31F3E710B5002802D0FFF7EFFFE3
:104C600010BD01204042FBE7030008008B4205D045
:104C7000002B03D042425041404218407047000090
:104C80000121114B11481A680A431A605A68024000
:104C90005A601A680E4802401A601A680D480240AD
:104CA0001A605A680C4802400F205A60DA6A824340
:104CB000DA621A6B094802401A635A6B8A435A63D4
:104CC000BF2212049A607047001002400CB8FF081F
:104CD000FFFFF6FEFFFFFBFFFFFFC0FFECFEFFFF45
:104CE000043870470368314A88B093420BD1802161
:104CF0002F4B09019A690A439A619B690B40019302
:104D0000019B08B070472B4A934209D10221284BDE
:104D1000DA690A43DA61DB690B400293029BF0E730
:104D2000254A934209D11021214BDA690A43DA61FD
:104D3000DB690B400393039BE3E7204A93420AD1CC
:104D400080211B4B4900DA690A43DA61DB690B40B9
:104D50000493049BD5E71A4A93420AD18021144B4D
:104D600049029A690A439A619B690B400593059B26
:104D7000C7E7144A93420AD180210D4B89029A69F0
:104D80000A439A619B690B400693069BB9E70E4A5A
:104D90009342B6D18021064BC9029A690A439A61AF
:104DA0009B690B400793079BABE7C046002C014073
:104DB00000100240000400400010004000200040AD
:104DC00000400140004401400048014003681B4A84
:104DD000934205D11A4A1B4993690B40936107E03E
:104DE000194A934205D10221154AD3698B43D361F5
:104DF0007047164A934203D1114A1021D369F5E74F
:104E0000134A934204D10E4A1249D3690B40EEE78C
:104E1000114A934203D10A4A10499369DDE7104AC7
:104E2000934203D1064A0F499369D6E70E4A93424B
:104E3000DED1034A0D499369CFE7C046002C0140FB
:104E400000100240FFF7FFFF000400400010004088
:104E500000200040FFFEFFFF00400140FFFFFEFF7B
:104E600000440140FFFFFDFF00480140FFFFFBFF42
:104E70000300421C1BD0124A90421BD00BD8114A8F
:104E8000904219D0104A132093420FD00F4A033892
:104E900093420BD0FEE70E4A90420FD00D4A1620E7
:104EA000934203D00C4A02389342F3D170470E204C
:104EB0004042FBE70D20F9E71120F7E71520F5E761
:104EC000002C014000100040002000400004004081
:104ED0000044014000480140004001400300421CE2
:104EE0001BD0124A90421BD00BD8114A904219D0C5
:104EF000104A132093420FD00F4A033893420BD02D
:104F0000FEE70E4A90420FD00D4A1620934203D07E
:104F10000C4A02389342F3D170470E204042FBE71F
:104F20000E20F9E71120F7E71520F5E7002C0140E6
:104F300000100040002000400004004000440140F8
:104F40000048014000400140F8B50400FFF7CAFEE8
:104F50002068FFF78DFFE26CA16CFEF783F92068F3
:104F6000FFF786FFFEF7A8F927683800FFF7B6FFBE
:104F700005003800FFF77CFF854209D02800E26C6D
:104F8000A16CFEF76FF92068FFF7A8FFFEF794F910
:104F9000F8BD0000F0B589B0059303000400943318
:104FA0001868039127005E490492FFF73FFE983787
:104FB0005C49050026003868FFF738FE9C365A49E0
:104FC00000903068FFF732FE2300A033019057496C
:104FD0001868FFF72BFE0290002D00D184E03B689B
:104FE000013302D0009B002B7ED03368013302D006
:104FF000019B002B78D02300A0331B68013302D023
:10500000029B002B70D000992800FFF72DFE01991C
:105010002060FFF729FE02992060FFF725FE20603F
:10502000002861D0424B984260D18022414BD2018E
:10503000D96841481143D960D9680140D96099695C
:10504000114399619B6913401B220693069B230021
:10505000A4331A802300943318683149FFF7CCFD3C
:10506000009B002B05D0230098332E491868FFF7CA
:10507000C3FD0025019BAB4207D023009C332A4986
:105080001868FFF7B9FD0135FF35029B002B08D0EA
:1050900080239B001D432300A03324491868FFF799
:1050A000ABFD2200A5321278244B261D9200D6506B
:1050B000236800226360039BA420A360049BE56136
:1050C000E3600E9B22622361059BA26263610C2355
:1050D0006262A36120560121FEF7C4F8009B3000F4
:1050E000002B1AD1FFF7C8FB09B0F0BD144B984252
:1050F000B0D180220F4B92021969124811431961F5
:10510000196901401961D9691143D961DB691340FB
:105110008E220793079B520099E7FFF77BFBE3E79B
:1051200018770008DC760008B87600089476000846
:105130000038014000100240FFBFFFFF08070020B9
:1051400000440040FFFFFDFF13B5002803D0049C7E
:105150000094FFF71FFF13BD10B5A5300278064B72
:105160009200D058FFF7AEF922231840223843426C
:105170005841C0B210BDC0460807002010B5A53088
:105180000278064B9200D058FFF79CF92123184073
:10519000213843425841C0B210BDC0460807002024
:1051A00070B504000E00002802D10120404270BDFD
:1051B000FFF7D2FF051EF8D12100A6310B78A534E8
:1051C00033702078034B80000122C058FFF7E2FBC8
:1051D0002800ECE70807002070B504000D00002847
:1051E0001AD0FFF7B9FF002816D123008C331D60B9
:1051F00025000020A4352856FEF76AF82100A534C2
:105200002078064B80000122C058A631FFF7C2FB70
:1052100000202856FEF750F870BDC0460807002051
:1052200070B50400150000281BD003000600002004
:1052300090331960A4363056FEF74AF82300210057
:10524000B633AC311B880968A5342078C918054BE2
:105250008000C058AAB2FEF749FE00203056FEF783
:105260002BF870BD0807002010B500280BD00300F4
:1052700098331B68013306D1A5300278024B9200A7
:10528000D058FFF7D1F810BD0807002010B500284E
:105290000BD0030098331B68013306D1A530027888
:1052A000024B9200D058FFF7E6F810BD0807002027
:1052B000030010B588331B680438984710BD0300FD
:1052C00010B58C331B680438984710BD0122036861
:1052D00010B5D96904000438114201D01A620BE0FC
:1052E0000222D9691142F9D10422D9691142F5D1BA
:1052F0000822D9691142F1D1FFF72EFF002805D10C
:10530000210001222000A231FFF744FB10BD000064
:1053100010B51B20FEF706F8024B1868FEF736FEA4
:1053200010BDC046080700201C2010B5FDF7FAFF8D
:10533000034B5868002801D0FEF728FE10BDC04678
:1053400008070020F7B5134B060019000193FFF77B
:105350006DFCFDF7DDFD104F8400E359002B0DD1EE
:10536000B020FDF730FF019905003000FFF75EFC2B
:1053700001002800FDF7CCFEE3591D603B591C6875
:10538000002C06D02000FDF7F9FDB0212000FDF72C
:105390001EFFF7BD54770008C806002010B50C2288
:1053A0000021040001F01DFB0023E36010BD00009C
:1053B000002310B501280BD114225A43064B101DAF
:1053C000C0188168002902D09B181B69984710BD3E
:1053D00001334008DBB2EDE71007002010B50120D3
:1053E000FEF734F90220FEF731F910BD10B50420A4
:1053F000FEF72CF90820FEF729F910BD70B50C2432
:105400001025A8B2013CFEF721F96D00002CF8D15F
:1054100070BD0000F8B505252E4F2F4C38002570C3
:10542000FFF7BCFF2D4E25753000FFF7B7FF2300B7
:10543000013528332A481D70FFF7B0FF23002948A3
:105440003C331D70FFF7AAFF230001355033264877
:105450001D706037FFF7A2FF24483D706036FFF7EC
:105460009DFF23483570FFF799FF230021488C33B7
:105470001D70FFF793FF23001F48A0331D70FFF737
:105480008DFF23001D48B4331D70FFF787FF2300F5
:105490001B48C8331D70FFF781FF23001948DC3318
:1054A0001D70FFF77BFF23002600F03316481D70A8
:1054B000FF36FFF773FF15487571FFF76FFF14484C
:1054C0007576FFF76BFF962312485B00E554FFF7F4
:1054D00065FFF8BD140700201007002028070020F2
:1054E0003C070020500700206407002078070020B8
:1054F0008C070020A0070020B4070020C807002068
:10550000DC070020F0070020040800201808002015
:105510002C0800204008002010B5044C143C201D2D
:10552000FDF7ECFC024B9C42F8D110BD5008002066
:105530001007002070B5102690B02C22002105A87D
:1055400001F04FFA32000021684601F04AFAA02328
:10555000022401259B0304A80494079508960C9443
:105560000E93FEF77FF8002800D0FEE70723029095
:1055700003902900684600930194FEF797FA0028EB
:1055800000D0FEE710B070BD0D488546FFF778FBF0
:105590000C480D490D4A002302E0D458C45004338E
:1055A000C4188C42F9D30A4A0A4C002301E0136064
:1055B0000432A242FBD301F05FFA00F0BBFFFEE72A
:1055C00000200020000000209C000020E87A000855
:1055D000A0000020080B0020FEE70000F7B5C3B2D2
:1055E00004000191262B29D8E02226499B005C5813
:1055F000D20002401443631C37D00F2625093540E2
:10560000214FAD00EB592640F340DB070DD52000BC
:105610001E49FFF771FA002802D02000FFF792FE22
:105620000122B2407B5993437B51019B052B27D824
:105630001800FAF757FD16211B1D1F23C022024038
:10564000C02A12D1C92B10D83F23114903409B0017
:105650005B58E0210B4A9B009B58C9000C401C433F
:10566000C9E700212000FFF755FAF7BD1021F9E73F
:105670002021F7E70321F5E70121F3E70921F1E70D
:10568000FEE7C046F0780008AC0900205477000817
:10569000C8780008C3B210B5262B17D8E022184CE2
:1056A0009B00D200024018591043030600221B0F32
:1056B000042B02D8134A9B009A580F24124B204007
:1056C0008000C358002918D0936110BDC022024049
:1056D000C02A0ED1C92B0CD83F230C4C03409B0091
:1056E0001B59E024064A9B009B58E40020401843C5
:1056F000DBE7012000224042DFE79362E5E7C04696
:10570000F0780008180000203C760008C8780008EF
:10571000C3B2184A262B0DD8E0219B00C9000140D6
:10572000D05808430F2103090B40042B14D9002340
:105730001B69FFDEC0210140C029F8D1C92BF6D872
:105740003F230D4903409B005B58E0219B00D35849
:10575000C90008401843E5E7084A9B009A580840EA
:10576000074B8000C35810691840C01A4342584183
:105770007047C046F0780008C8780008180000207C
:105780003C76000810B5FFF779F910BD70B5041E1E
:1057900009D0FFF773F9050000F0DAFEFFF76EF9A4
:1057A000401BA042F8D370BD7047A423A2215B0028
:1057B000C35A4900405A4033181A3F2318407047D3
:1057C000A4235B00C25A043BC35A9A4203D0FC3064
:1057D000026CD05C704701204042FBE7A323A52266
:1057E0005B005200C35C805AC0B2834202D3C01A2D
:1057F0003F307047C01A0138FBE713B56B460268AB
:10580000D9710733546819000122A04716BD37B576
:105810006B46DD1D29000400FFF7C2FC002810D1F3
:1058200022003F21B432138801330B402100B031F4
:1058300009888B4205D0A834118820682D784554FA
:10584000138037BD0300010070B5B633B8311A8834
:105850000C6812193F2422401A800200B2321288CA
:105860001D880024AA4217D01D8840321C880B4B8B
:10587000521BA4B21A4004D54023013A5B421A439A
:10588000013240231B1B9A4200D91A000A600124EE
:105890000349FFF7C5FC6442200070BD3F00008053
:1058A00045580008F0B5036885B09B6801910392E4
:1058B00004009847A32340275B00E35A0500FF1A22
:1058C0000123237423009433029368331B6B013349
:1058D00009D1A8235B00E25C002A04D000220298D0
:1058E000E254FFF7C1FC236820009B68984700281A
:1058F000F9D0039EBE4226D8AE4224D8A323270067
:105900005B00E35AFC37786C9A19C018402A33D8E8
:105910003200019901F0DEF83500A3223F21520048
:10592000A35A02989B190B40A352FFF727FC0028AB
:1059300006D1FC342A00174902982565FFF770FC50
:10594000039805B0F0BDBD4200D93D0023682A0090
:105950005B68019920009847019B20005B19019327
:105960002368761B9B689847A3235B00E75A073B95
:10597000FF3B0500DF1BBDE74025ED1A2A0001991A
:1059800001F0A8F8019B786C721B591901F0A2F87C
:10599000C3E7C04645580008F7B5037C04000D0076
:1059A000002B16D0FDF758FCA327A52601907F00F9
:1059B0007600E25BA35B9A420BD0002DFAD0FDF794
:1059C0004BFC019BC01A8542F3D8A323A25B5B006A
:1059D000E252F7BD10B5914201D1012149420400C4
:1059E000FC346363029BE262A3630300A4221133CD
:1059F0002364002352002163835202005132626407
:105A0000A5225200A364835210BD0000F7B5050023
:105A100000206860FA208000A8604448089C286044
:105A2000C8B226282AD8E027414E8000FF000F4048
:105A300081593943D0B2262836D8E0273C4E800021
:105A4000FF00174082593A43D8B2262842D8E027AF
:105A5000374E8000FF001F4083593B43E0B22628A9
:105A60004ED8E027324E8000FF00274084593C4347
:105A700028000094FFF7AEFF2800FEBDC0260E40B0
:105A8000C02E0ED1C9280CD83F202A4F08408000D4
:105A9000C059E027264E80008059FF00394001435D
:105AA000C8E701214942C5E7C0261640C02E0ED1E5
:105AB000C9280CD83F201F4F10408000C059E02754
:105AC0001B4E80008059FF003A400243BCE7012290
:105AD0005242B9E7C0261E40C02E0ED1C9280CD8AC
